{
  "_format": "hh-sol-artifact-1",
  "contractName": "MockUSDC",
  "sourceName": "contracts/MockUSDC.sol",
  "abi": [
    {
      "inputs": [
        {
          "internalType": "string",
          "name": "name",
          "type": "string"
        },
        {
          "internalType": "string",
          "name": "symbol",
          "type": "string"
        },
        {
          "internalType": "uint256",
          "name": "initialSupply",
          "type": "uint256"
        },
        {
          "internalType": "address",
          "name": "owner",
          "type": "address"
        }
      ],
      "stateMutability": "nonpayable",
      "type": "constructor"
    },
    {
      "anonymous": false,
      "inputs": [
        {
          "indexed": true,
          "internalType": "address",
          "name": "owner",
          "type": "address"
        },
        {
          "indexed": true,
          "internalType": "address",
          "name": "spender",
          "type": "address"
        },
        {
          "indexed": false,
          "internalType": "uint256",
          "name": "value",
          "type": "uint256"
        }
      ],
      "name": "Approval",
      "type": "event"
    },
    {
      "anonymous": false,
      "inputs": [
        {
          "indexed": true,
          "internalType": "address",
          "name": "from",
          "type": "address"
        },
        {
          "indexed": true,
          "internalType": "address",
          "name": "to",
          "type": "address"
        },
        {
          "indexed": false,
          "internalType": "uint256",
          "name": "value",
          "type": "uint256"
        }
      ],
      "name": "Transfer",
      "type": "event"
    },
    {
      "inputs": [
        {
          "internalType": "address",
          "name": "owner",
          "type": "address"
        },
        {
          "internalType": "address",
          "name": "spender",
          "type": "address"
        }
      ],
      "name": "allowance",
      "outputs": [
        {
          "internalType": "uint256",
          "name": "",
          "type": "uint256"
        }
      ],
      "stateMutability": "view",
      "type": "function"
    },
    {
      "inputs": [
        {
          "internalType": "address",
          "name": "spender",
          "type": "address"
        },
        {
          "internalType": "uint256",
          "name": "amount",
          "type": "uint256"
        }
      ],
      "name": "approve",
      "outputs": [
        {
          "internalType": "bool",
          "name": "",
          "type": "bool"
        }
      ],
      "stateMutability": "nonpayable",
      "type": "function"
    },
    {
      "inputs": [
        {
          "internalType": "address",
          "name": "account",
          "type": "address"
        }
      ],
      "name": "balanceOf",
      "outputs": [
        {
          "internalType": "uint256",
          "name": "",
          "type": "uint256"
        }
      ],
      "stateMutability": "view",
      "type": "function"
    },
    {
      "inputs": [
        {
          "internalType": "uint256",
          "name": "amount",
          "type": "uint256"
        }
      ],
      "name": "burn",
      "outputs": [],
      "stateMutability": "nonpayable",
      "type": "function"
    },
    {
      "inputs": [
        {
          "internalType": "address",
          "name": "account",
          "type": "address"
        },
        {
          "internalType": "uint256",
          "name": "amount",
          "type": "uint256"
        }
      ],
      "name": "burnFrom",
      "outputs": [],
      "stateMutability": "nonpayable",
      "type": "function"
    },
    {
      "inputs": [],
      "name": "decimals",
      "outputs": [
        {
          "internalType": "uint8",
          "name": "",
          "type": "uint8"
        }
      ],
      "stateMutability": "view",
      "type": "function"
    },
    {
      "inputs": [
        {
          "internalType": "address",
          "name": "spender",
          "type": "address"
        },
        {
          "internalType": "uint256",
          "name": "subtractedValue",
          "type": "uint256"
        }
      ],
      "name": "decreaseAllowance",
      "outputs": [
        {
          "internalType": "bool",
          "name": "",
          "type": "bool"
        }
      ],
      "stateMutability": "nonpayable",
      "type": "function"
    },
    {
      "inputs": [
        {
          "internalType": "address",
          "name": "spender",
          "type": "address"
        },
        {
          "internalType": "uint256",
          "name": "addedValue",
          "type": "uint256"
        }
      ],
      "name": "increaseAllowance",
      "outputs": [
        {
          "internalType": "bool",
          "name": "",
          "type": "bool"
        }
      ],
      "stateMutability": "nonpayable",
      "type": "function"
    },
    {
      "inputs": [
        {
          "internalType": "uint256",
          "name": "_amount",
          "type": "uint256"
        }
      ],
      "name": "mintNewToken",
      "outputs": [],
      "stateMutability": "nonpayable",
      "type": "function"
    },
    {
      "inputs": [],
      "name": "name",
      "outputs": [
        {
          "internalType": "string",
          "name": "",
          "type": "string"
        }
      ],
      "stateMutability": "view",
      "type": "function"
    },
    {
      "inputs": [],
      "name": "symbol",
      "outputs": [
        {
          "internalType": "string",
          "name": "",
          "type": "string"
        }
      ],
      "stateMutability": "view",
      "type": "function"
    },
    {
      "inputs": [],
      "name": "totalSupply",
      "outputs": [
        {
          "internalType": "uint256",
          "name": "",
          "type": "uint256"
        }
      ],
      "stateMutability": "view",
      "type": "function"
    },
    {
      "inputs": [
        {
          "internalType": "address",
          "name": "to",
          "type": "address"
        },
        {
          "internalType": "uint256",
          "name": "amount",
          "type": "uint256"
        }
      ],
      "name": "transfer",
      "outputs": [
        {
          "internalType": "bool",
          "name": "",
          "type": "bool"
        }
      ],
      "stateMutability": "nonpayable",
      "type": "function"
    },
    {
      "inputs": [
        {
          "internalType": "address",
          "name": "from",
          "type": "address"
        },
        {
          "internalType": "address",
          "name": "to",
          "type": "address"
        },
        {
          "internalType": "uint256",
          "name": "amount",
          "type": "uint256"
        }
      ],
      "name": "transferFrom",
      "outputs": [
        {
          "internalType": "bool",
          "name": "",
          "type": "bool"
        }
      ],
      "stateMutability": "nonpayable",
      "type": "function"
    }
  ],
  "bytecode": "0x60806040523480156200001157600080fd5b50604051620021153803806200211583398181016040528101906200003791906200042d565b83838383838381600390816200004e91906200071e565b5080600490816200006091906200071e565b5050506200007581836200008360201b60201c565b505050505050505062000920565b600073ffffffffffffffffffffffffffffffffffffffff168273ffffffffffffffffffffffffffffffffffffffff1603620000f5576040517f08c379a0000000000000000000000000000000000000000000000000000000008152600401620000ec9062000866565b60405180910390fd5b6200010960008383620001f060201b60201c565b80600260008282546200011d9190620008b7565b92505081905550806000808473ffffffffffffffffffffffffffffffffffffffff1673ffffffffffffffffffffffffffffffffffffffff168152602001908152602001600020600082825401925050819055508173ffffffffffffffffffffffffffffffffffffffff16600073ffffffffffffffffffffffffffffffffffffffff167fddf252ad1be2c89b69c2b068fc378daa952ba7f163c4a11628f55a4df523b3ef83604051620001d0919062000903565b60405180910390a3620001ec60008383620001f560201b60201c565b5050565b505050565b505050565b6000604051905090565b600080fd5b600080fd5b600080fd5b600080fd5b6000601f19601f8301169050919050565b7f4e487b7100000000000000000000000000000000000000000000000000000000600052604160045260246000fd5b620002638262000218565b810181811067ffffffffffffffff8211171562000285576200028462000229565b5b80604052505050565b60006200029a620001fa565b9050620002a8828262000258565b919050565b600067ffffffffffffffff821115620002cb57620002ca62000229565b5b620002d68262000218565b9050602081019050919050565b60005b8381101562000303578082015181840152602081019050620002e6565b60008484015250505050565b6000620003266200032084620002ad565b6200028e565b90508281526020810184848401111562000345576200034462000213565b5b62000352848285620002e3565b509392505050565b600082601f8301126200037257620003716200020e565b5b8151620003848482602086016200030f565b91505092915050565b6000819050919050565b620003a2816200038d565b8114620003ae57600080fd5b50565b600081519050620003c28162000397565b92915050565b600073ffffffffffffffffffffffffffffffffffffffff82169050919050565b6000620003f582620003c8565b9050919050565b6200040781620003e8565b81146200041357600080fd5b50565b6000815190506200042781620003fc565b92915050565b600080600080608085870312156200044a576200044962000204565b5b600085015167ffffffffffffffff8111156200046b576200046a62000209565b5b62000479878288016200035a565b945050602085015167ffffffffffffffff8111156200049d576200049c62000209565b5b620004ab878288016200035a565b9350506040620004be87828801620003b1565b9250506060620004d18782880162000416565b91505092959194509250565b600081519050919050565b7f4e487b7100000000000000000000000000000000000000000000000000000000600052602260045260246000fd5b600060028204905060018216806200053057607f821691505b602082108103620005465762000545620004e8565b5b50919050565b60008190508160005260206000209050919050565b60006020601f8301049050919050565b600082821b905092915050565b600060088302620005b07fffffffffffffffffffffffffffffffffffffffffffffffffffffffffffffffff8262000571565b620005bc868362000571565b95508019841693508086168417925050509392505050565b6000819050919050565b6000620005ff620005f9620005f3846200038d565b620005d4565b6200038d565b9050919050565b6000819050919050565b6200061b83620005de565b620006336200062a8262000606565b8484546200057e565b825550505050565b600090565b6200064a6200063b565b6200065781848462000610565b505050565b5b818110156200067f576200067360008262000640565b6001810190506200065d565b5050565b601f821115620006ce5762000698816200054c565b620006a38462000561565b81016020851015620006b3578190505b620006cb620006c28562000561565b8301826200065c565b50505b505050565b600082821c905092915050565b6000620006f360001984600802620006d3565b1980831691505092915050565b60006200070e8383620006e0565b9150826002028217905092915050565b6200072982620004dd565b67ffffffffffffffff81111562000745576200074462000229565b5b62000751825462000517565b6200075e82828562000683565b600060209050601f83116001811462000796576000841562000781578287015190505b6200078d858262000700565b865550620007fd565b601f198416620007a6866200054c565b60005b82811015620007d057848901518255600182019150602085019450602081019050620007a9565b86831015620007f05784890151620007ec601f891682620006e0565b8355505b6001600288020188555050505b505050505050565b600082825260208201905092915050565b7f45524332303a206d696e7420746f20746865207a65726f206164647265737300600082015250565b60006200084e601f8362000805565b91506200085b8262000816565b602082019050919050565b6000602082019050818103600083015262000881816200083f565b9050919050565b7f4e487b7100000000000000000000000000000000000000000000000000000000600052601160045260246000fd5b6000620008c4826200038d565b9150620008d1836200038d565b9250828201905080821115620008ec57620008eb62000888565b5b92915050565b620008fd816200038d565b82525050565b60006020820190506200091a6000830184620008f2565b92915050565b6117e580620009306000396000f3fe608060405234801561001057600080fd5b50600436106100ea5760003560e01c806370a082311161008c578063a457c2d711610066578063a457c2d71461025f578063a9059cbb1461028f578063d0c4e7fb146102bf578063dd62ed3e146102db576100ea565b806370a08231146101f557806379cc67901461022557806395d89b4114610241576100ea565b806323b872dd116100c857806323b872dd1461015b578063313ce5671461018b57806339509351146101a957806342966c68146101d9576100ea565b806306fdde03146100ef578063095ea7b31461010d57806318160ddd1461013d575b600080fd5b6100f761030b565b6040516101049190610f05565b60405180910390f35b61012760048036038101906101229190610fc0565b61039d565b604051610134919061101b565b60405180910390f35b6101456103c0565b6040516101529190611045565b60405180910390f35b61017560048036038101906101709190611060565b6103ca565b604051610182919061101b565b60405180910390f35b6101936103f9565b6040516101a091906110cf565b60405180910390f35b6101c360048036038101906101be9190610fc0565b610402565b6040516101d0919061101b565b60405180910390f35b6101f360048036038101906101ee91906110ea565b610439565b005b61020f600480360381019061020a9190611117565b61044d565b60405161021c9190611045565b60405180910390f35b61023f600480360381019061023a9190610fc0565b610495565b005b6102496104b5565b6040516102569190610f05565b60405180910390f35b61027960048036038101906102749190610fc0565b610547565b604051610286919061101b565b60405180910390f35b6102a960048036038101906102a49190610fc0565b6105be565b6040516102b6919061101b565b60405180910390f35b6102d960048036038101906102d491906110ea565b6105e1565b005b6102f560048036038101906102f09190611144565b6105ee565b6040516103029190611045565b60405180910390f35b60606003805461031a906111b3565b80601f0160208091040260200160405190810160405280929190818152602001828054610346906111b3565b80156103935780601f1061036857610100808354040283529160200191610393565b820191906000526020600020905b81548152906001019060200180831161037657829003601f168201915b5050505050905090565b6000806103a8610675565b90506103b581858561067d565b600191505092915050565b6000600254905090565b6000806103d5610675565b90506103e2858285610846565b6103ed8585856108d2565b60019150509392505050565b60006012905090565b60008061040d610675565b905061042e81858561041f85896105ee565b6104299190611213565b61067d565b600191505092915050565b61044a610444610675565b82610b48565b50565b60008060008373ffffffffffffffffffffffffffffffffffffffff1673ffffffffffffffffffffffffffffffffffffffff168152602001908152602001600020549050919050565b6104a7826104a1610675565b83610846565b6104b18282610b48565b5050565b6060600480546104c4906111b3565b80601f01602080910402602001604051908101604052809291908181526020018280546104f0906111b3565b801561053d5780601f106105125761010080835404028352916020019161053d565b820191906000526020600020905b81548152906001019060200180831161052057829003601f168201915b5050505050905090565b600080610552610675565b9050600061056082866105ee565b9050838110156105a5576040517f08c379a000000000000000000000000000000000000000000000000000000000815260040161059c906112b9565b60405180910390fd5b6105b2828686840361067d565b60019250505092915050565b6000806105c9610675565b90506105d68185856108d2565b600191505092915050565b6105eb3382610d15565b50565b6000600160008473ffffffffffffffffffffffffffffffffffffffff1673ffffffffffffffffffffffffffffffffffffffff16815260200190815260200160002060008373ffffffffffffffffffffffffffffffffffffffff1673ffffffffffffffffffffffffffffffffffffffff16815260200190815260200160002054905092915050565b600033905090565b600073ffffffffffffffffffffffffffffffffffffffff168373ffffffffffffffffffffffffffffffffffffffff16036106ec576040517f08c379a00000000000000000000000000000000000000000000000000000000081526004016106e39061134b565b60405180910390fd5b600073ffffffffffffffffffffffffffffffffffffffff168273ffffffffffffffffffffffffffffffffffffffff160361075b576040517f08c379a0000000000000000000000000000000000000000000000000000000008152600401610752906113dd565b60405180910390fd5b80600160008573ffffffffffffffffffffffffffffffffffffffff1673ffffffffffffffffffffffffffffffffffffffff16815260200190815260200160002060008473ffffffffffffffffffffffffffffffffffffffff1673ffffffffffffffffffffffffffffffffffffffff168152602001908152602001600020819055508173ffffffffffffffffffffffffffffffffffffffff168373ffffffffffffffffffffffffffffffffffffffff167f8c5be1e5ebec7d5bd14f71427d1e84f3dd0314c0f7b2291e5b200ac8c7c3b925836040516108399190611045565b60405180910390a3505050565b600061085284846105ee565b90507fffffffffffffffffffffffffffffffffffffffffffffffffffffffffffffffff81146108cc57818110156108be576040517f08c379a00000000000000000000000000000000000000000000000000000000081526004016108b590611449565b60405180910390fd5b6108cb848484840361067d565b5b50505050565b600073ffffffffffffffffffffffffffffffffffffffff168373ffffffffffffffffffffffffffffffffffffffff1603610941576040517f08c379a0000000000000000000000000000000000000000000000000000000008152600401610938906114db565b60405180910390fd5b600073ffffffffffffffffffffffffffffffffffffffff168273ffffffffffffffffffffffffffffffffffffffff16036109b0576040517f08c379a00000000000000000000000000000000000000000000000000000000081526004016109a79061156d565b60405180910390fd5b6109bb838383610e6b565b60008060008573ffffffffffffffffffffffffffffffffffffffff1673ffffffffffffffffffffffffffffffffffffffff16815260200190815260200160002054905081811015610a41576040517f08c379a0000000000000000000000000000000000000000000000000000000008152600401610a38906115ff565b60405180910390fd5b8181036000808673ffffffffffffffffffffffffffffffffffffffff1673ffffffffffffffffffffffffffffffffffffffff16815260200190815260200160002081905550816000808573ffffffffffffffffffffffffffffffffffffffff1673ffffffffffffffffffffffffffffffffffffffff168152602001908152602001600020600082825401925050819055508273ffffffffffffffffffffffffffffffffffffffff168473ffffffffffffffffffffffffffffffffffffffff167fddf252ad1be2c89b69c2b068fc378daa952ba7f163c4a11628f55a4df523b3ef84604051610b2f9190611045565b60405180910390a3610b42848484610e70565b50505050565b600073ffffffffffffffffffffffffffffffffffffffff168273ffffffffffffffffffffffffffffffffffffffff1603610bb7576040517f08c379a0000000000000000000000000000000000000000000000000000000008152600401610bae90611691565b60405180910390fd5b610bc382600083610e6b565b60008060008473ffffffffffffffffffffffffffffffffffffffff1673ffffffffffffffffffffffffffffffffffffffff16815260200190815260200160002054905081811015610c49576040517f08c379a0000000000000000000000000000000000000000000000000000000008152600401610c4090611723565b60405180910390fd5b8181036000808573ffffffffffffffffffffffffffffffffffffffff1673ffffffffffffffffffffffffffffffffffffffff1681526020019081526020016000208190555081600260008282540392505081905550600073ffffffffffffffffffffffffffffffffffffffff168373ffffffffffffffffffffffffffffffffffffffff167fddf252ad1be2c89b69c2b068fc378daa952ba7f163c4a11628f55a4df523b3ef84604051610cfc9190611045565b60405180910390a3610d1083600084610e70565b505050565b600073ffffffffffffffffffffffffffffffffffffffff168273ffffffffffffffffffffffffffffffffffffffff1603610d84576040517f08c379a0000000000000000000000000000000000000000000000000000000008152600401610d7b9061178f565b60405180910390fd5b610d9060008383610e6b565b8060026000828254610da29190611213565b92505081905550806000808473ffffffffffffffffffffffffffffffffffffffff1673ffffffffffffffffffffffffffffffffffffffff168152602001908152602001600020600082825401925050819055508173ffffffffffffffffffffffffffffffffffffffff16600073ffffffffffffffffffffffffffffffffffffffff167fddf252ad1be2c89b69c2b068fc378daa952ba7f163c4a11628f55a4df523b3ef83604051610e539190611045565b60405180910390a3610e6760008383610e70565b5050565b505050565b505050565b600081519050919050565b600082825260208201905092915050565b60005b83811015610eaf578082015181840152602081019050610e94565b60008484015250505050565b6000601f19601f8301169050919050565b6000610ed782610e75565b610ee18185610e80565b9350610ef1818560208601610e91565b610efa81610ebb565b840191505092915050565b60006020820190508181036000830152610f1f8184610ecc565b905092915050565b600080fd5b600073ffffffffffffffffffffffffffffffffffffffff82169050919050565b6000610f5782610f2c565b9050919050565b610f6781610f4c565b8114610f7257600080fd5b50565b600081359050610f8481610f5e565b92915050565b6000819050919050565b610f9d81610f8a565b8114610fa857600080fd5b50565b600081359050610fba81610f94565b92915050565b60008060408385031215610fd757610fd6610f27565b5b6000610fe585828601610f75565b9250506020610ff685828601610fab565b9150509250929050565b60008115159050919050565b61101581611000565b82525050565b6000602082019050611030600083018461100c565b92915050565b61103f81610f8a565b82525050565b600060208201905061105a6000830184611036565b92915050565b60008060006060848603121561107957611078610f27565b5b600061108786828701610f75565b935050602061109886828701610f75565b92505060406110a986828701610fab565b9150509250925092565b600060ff82169050919050565b6110c9816110b3565b82525050565b60006020820190506110e460008301846110c0565b92915050565b600060208284031215611100576110ff610f27565b5b600061110e84828501610fab565b91505092915050565b60006020828403121561112d5761112c610f27565b5b600061113b84828501610f75565b91505092915050565b6000806040838503121561115b5761115a610f27565b5b600061116985828601610f75565b925050602061117a85828601610f75565b9150509250929050565b7f4e487b7100000000000000000000000000000000000000000000000000000000600052602260045260246000fd5b600060028204905060018216806111cb57607f821691505b6020821081036111de576111dd611184565b5b50919050565b7f4e487b7100000000000000000000000000000000000000000000000000000000600052601160045260246000fd5b600061121e82610f8a565b915061122983610f8a565b9250828201905080821115611241576112406111e4565b5b92915050565b7f45524332303a2064656372656173656420616c6c6f77616e63652062656c6f7760008201527f207a65726f000000000000000000000000000000000000000000000000000000602082015250565b60006112a3602583610e80565b91506112ae82611247565b604082019050919050565b600060208201905081810360008301526112d281611296565b9050919050565b7f45524332303a20617070726f76652066726f6d20746865207a65726f2061646460008201527f7265737300000000000000000000000000000000000000000000000000000000602082015250565b6000611335602483610e80565b9150611340826112d9565b604082019050919050565b6000602082019050818103600083015261136481611328565b9050919050565b7f45524332303a20617070726f766520746f20746865207a65726f20616464726560008201527f7373000000000000000000000000000000000000000000000000000000000000602082015250565b60006113c7602283610e80565b91506113d28261136b565b604082019050919050565b600060208201905081810360008301526113f6816113ba565b9050919050565b7f45524332303a20696e73756666696369656e7420616c6c6f77616e6365000000600082015250565b6000611433601d83610e80565b915061143e826113fd565b602082019050919050565b6000602082019050818103600083015261146281611426565b9050919050565b7f45524332303a207472616e736665722066726f6d20746865207a65726f20616460008201527f6472657373000000000000000000000000000000000000000000000000000000602082015250565b60006114c5602583610e80565b91506114d082611469565b604082019050919050565b600060208201905081810360008301526114f4816114b8565b9050919050565b7f45524332303a207472616e7366657220746f20746865207a65726f206164647260008201527f6573730000000000000000000000000000000000000000000000000000000000602082015250565b6000611557602383610e80565b9150611562826114fb565b604082019050919050565b600060208201905081810360008301526115868161154a565b9050919050565b7f45524332303a207472616e7366657220616d6f756e742065786365656473206260008201527f616c616e63650000000000000000000000000000000000000000000000000000602082015250565b60006115e9602683610e80565b91506115f48261158d565b604082019050919050565b60006020820190508181036000830152611618816115dc565b9050919050565b7f45524332303a206275726e2066726f6d20746865207a65726f2061646472657360008201527f7300000000000000000000000000000000000000000000000000000000000000602082015250565b600061167b602183610e80565b91506116868261161f565b604082019050919050565b600060208201905081810360008301526116aa8161166e565b9050919050565b7f45524332303a206275726e20616d6f756e7420657863656564732062616c616e60008201527f6365000000000000000000000000000000000000000000000000000000000000602082015250565b600061170d602283610e80565b9150611718826116b1565b604082019050919050565b6000602082019050818103600083015261173c81611700565b9050919050565b7f45524332303a206d696e7420746f20746865207a65726f206164647265737300600082015250565b6000611779601f83610e80565b915061178482611743565b602082019050919050565b600060208201905081810360008301526117a88161176c565b905091905056fea2646970667358221220053c68e567828c1ed79a9242d612892ef9ade12eb757f91643081fa9d24e30c264736f6c63430008130033",
  "linkReferences": {},
  "deployedLinkReferences": {}
}