{
  "_format": "hh-sol-artifact-1",
  "contractName": "S2RNFT",
  "sourceName": "contracts/S2RNFT.sol",
  "abi": [
    {
      "inputs": [],
      "stateMutability": "nonpayable",
      "type": "constructor"
    },
    {
      "anonymous": false,
      "inputs": [
        {
          "indexed": true,
          "internalType": "address",
          "name": "owner",
          "type": "address"
        },
        {
          "indexed": true,
          "internalType": "address",
          "name": "approved",
          "type": "address"
        },
        {
          "indexed": true,
          "internalType": "uint256",
          "name": "tokenId",
          "type": "uint256"
        }
      ],
      "name": "Approval",
      "type": "event"
    },
    {
      "anonymous": false,
      "inputs": [
        {
          "indexed": true,
          "internalType": "address",
          "name": "owner",
          "type": "address"
        },
        {
          "indexed": true,
          "internalType": "address",
          "name": "operator",
          "type": "address"
        },
        {
          "indexed": false,
          "internalType": "bool",
          "name": "approved",
          "type": "bool"
        }
      ],
      "name": "ApprovalForAll",
      "type": "event"
    },
    {
      "anonymous": false,
      "inputs": [
        {
          "indexed": false,
          "internalType": "uint256",
          "name": "_fromTokenId",
          "type": "uint256"
        },
        {
          "indexed": false,
          "internalType": "uint256",
          "name": "_toTokenId",
          "type": "uint256"
        }
      ],
      "name": "BatchMetadataUpdate",
      "type": "event"
    },
    {
      "anonymous": false,
      "inputs": [
        {
          "indexed": false,
          "internalType": "uint256",
          "name": "_tokenId",
          "type": "uint256"
        }
      ],
      "name": "MetadataUpdate",
      "type": "event"
    },
    {
      "anonymous": false,
      "inputs": [
        {
          "indexed": true,
          "internalType": "address",
          "name": "from",
          "type": "address"
        },
        {
          "indexed": true,
          "internalType": "address",
          "name": "to",
          "type": "address"
        },
        {
          "indexed": true,
          "internalType": "uint256",
          "name": "tokenId",
          "type": "uint256"
        }
      ],
      "name": "Transfer",
      "type": "event"
    },
    {
      "inputs": [
        {
          "internalType": "address",
          "name": "to",
          "type": "address"
        },
        {
          "internalType": "uint256",
          "name": "tokenId",
          "type": "uint256"
        }
      ],
      "name": "approve",
      "outputs": [],
      "stateMutability": "nonpayable",
      "type": "function"
    },
    {
      "inputs": [
        {
          "internalType": "address",
          "name": "owner",
          "type": "address"
        }
      ],
      "name": "balanceOf",
      "outputs": [
        {
          "internalType": "uint256",
          "name": "",
          "type": "uint256"
        }
      ],
      "stateMutability": "view",
      "type": "function"
    },
    {
      "inputs": [
        {
          "internalType": "uint256",
          "name": "_tokenId",
          "type": "uint256"
        }
      ],
      "name": "burnReservationNFT",
      "outputs": [],
      "stateMutability": "nonpayable",
      "type": "function"
    },
    {
      "inputs": [
        {
          "internalType": "uint256",
          "name": "_tokenId",
          "type": "uint256"
        },
        {
          "internalType": "address",
          "name": "_shopAddress",
          "type": "address"
        },
        {
          "internalType": "string",
          "name": "_shopName",
          "type": "string"
        },
        {
          "internalType": "uint256",
          "name": "_startingTime",
          "type": "uint256"
        },
        {
          "internalType": "uint256",
          "name": "_endingTime",
          "type": "uint256"
        },
        {
          "internalType": "uint256",
          "name": "_guestCount",
          "type": "uint256"
        },
        {
          "internalType": "uint256",
          "name": "_courseId",
          "type": "uint256"
        },
        {
          "internalType": "uint256",
          "name": "_cancelFee",
          "type": "uint256"
        }
      ],
      "name": "convertReservationNFTtoVisitedNFT",
      "outputs": [],
      "stateMutability": "nonpayable",
      "type": "function"
    },
    {
      "inputs": [
        {
          "internalType": "uint256",
          "name": "_tokenId",
          "type": "uint256"
        }
      ],
      "name": "exists",
      "outputs": [
        {
          "internalType": "bool",
          "name": "",
          "type": "bool"
        }
      ],
      "stateMutability": "view",
      "type": "function"
    },
    {
      "inputs": [
        {
          "internalType": "uint256",
          "name": "tokenId",
          "type": "uint256"
        }
      ],
      "name": "getApproved",
      "outputs": [
        {
          "internalType": "address",
          "name": "",
          "type": "address"
        }
      ],
      "stateMutability": "view",
      "type": "function"
    },
    {
      "inputs": [
        {
          "internalType": "address",
          "name": "owner",
          "type": "address"
        },
        {
          "internalType": "address",
          "name": "operator",
          "type": "address"
        }
      ],
      "name": "isApprovedForAll",
      "outputs": [
        {
          "internalType": "bool",
          "name": "",
          "type": "bool"
        }
      ],
      "stateMutability": "view",
      "type": "function"
    },
    {
      "inputs": [
        {
          "internalType": "address",
          "name": "_shopAddress",
          "type": "address"
        },
        {
          "internalType": "string",
          "name": "_shopName",
          "type": "string"
        },
        {
          "internalType": "uint256",
          "name": "_startingTime",
          "type": "uint256"
        },
        {
          "internalType": "uint256",
          "name": "_endingTime",
          "type": "uint256"
        },
        {
          "internalType": "uint256",
          "name": "_guestCount",
          "type": "uint256"
        },
        {
          "internalType": "uint256",
          "name": "_courseId",
          "type": "uint256"
        },
        {
          "internalType": "uint256",
          "name": "_cancelFee",
          "type": "uint256"
        }
      ],
      "name": "mintReservationNFT",
      "outputs": [],
      "stateMutability": "nonpayable",
      "type": "function"
    },
    {
      "inputs": [],
      "name": "name",
      "outputs": [
        {
          "internalType": "string",
          "name": "",
          "type": "string"
        }
      ],
      "stateMutability": "view",
      "type": "function"
    },
    {
      "inputs": [
        {
          "internalType": "uint256",
          "name": "tokenId",
          "type": "uint256"
        }
      ],
      "name": "ownerOf",
      "outputs": [
        {
          "internalType": "address",
          "name": "",
          "type": "address"
        }
      ],
      "stateMutability": "view",
      "type": "function"
    },
    {
      "inputs": [
        {
          "internalType": "address",
          "name": "from",
          "type": "address"
        },
        {
          "internalType": "address",
          "name": "to",
          "type": "address"
        },
        {
          "internalType": "uint256",
          "name": "tokenId",
          "type": "uint256"
        }
      ],
      "name": "safeTransferFrom",
      "outputs": [],
      "stateMutability": "nonpayable",
      "type": "function"
    },
    {
      "inputs": [
        {
          "internalType": "address",
          "name": "from",
          "type": "address"
        },
        {
          "internalType": "address",
          "name": "to",
          "type": "address"
        },
        {
          "internalType": "uint256",
          "name": "tokenId",
          "type": "uint256"
        },
        {
          "internalType": "bytes",
          "name": "data",
          "type": "bytes"
        }
      ],
      "name": "safeTransferFrom",
      "outputs": [],
      "stateMutability": "nonpayable",
      "type": "function"
    },
    {
      "inputs": [
        {
          "internalType": "address",
          "name": "operator",
          "type": "address"
        },
        {
          "internalType": "bool",
          "name": "approved",
          "type": "bool"
        }
      ],
      "name": "setApprovalForAll",
      "outputs": [],
      "stateMutability": "nonpayable",
      "type": "function"
    },
    {
      "inputs": [
        {
          "internalType": "bytes4",
          "name": "interfaceId",
          "type": "bytes4"
        }
      ],
      "name": "supportsInterface",
      "outputs": [
        {
          "internalType": "bool",
          "name": "",
          "type": "bool"
        }
      ],
      "stateMutability": "view",
      "type": "function"
    },
    {
      "inputs": [],
      "name": "symbol",
      "outputs": [
        {
          "internalType": "string",
          "name": "",
          "type": "string"
        }
      ],
      "stateMutability": "view",
      "type": "function"
    },
    {
      "inputs": [
        {
          "internalType": "uint256",
          "name": "tokenId",
          "type": "uint256"
        }
      ],
      "name": "tokenURI",
      "outputs": [
        {
          "internalType": "string",
          "name": "",
          "type": "string"
        }
      ],
      "stateMutability": "view",
      "type": "function"
    },
    {
      "inputs": [
        {
          "internalType": "address",
          "name": "from",
          "type": "address"
        },
        {
          "internalType": "address",
          "name": "to",
          "type": "address"
        },
        {
          "internalType": "uint256",
          "name": "tokenId",
          "type": "uint256"
        }
      ],
      "name": "transferFrom",
      "outputs": [],
      "stateMutability": "nonpayable",
      "type": "function"
    }
  ],
  "bytecode": "0x60806040523480156200001157600080fd5b506040518060400160405280601181526020017f5374616b653252657365727665204e46540000000000000000000000000000008152506040518060400160405280600381526020017f533252000000000000000000000000000000000000000000000000000000000081525081600090816200008f919062000324565b508060019081620000a1919062000324565b5050506200040b565b600081519050919050565b7f4e487b7100000000000000000000000000000000000000000000000000000000600052604160045260246000fd5b7f4e487b7100000000000000000000000000000000000000000000000000000000600052602260045260246000fd5b600060028204905060018216806200012c57607f821691505b602082108103620001425762000141620000e4565b5b50919050565b60008190508160005260206000209050919050565b60006020601f8301049050919050565b600082821b905092915050565b600060088302620001ac7fffffffffffffffffffffffffffffffffffffffffffffffffffffffffffffffff826200016d565b620001b886836200016d565b95508019841693508086168417925050509392505050565b6000819050919050565b6000819050919050565b600062000205620001ff620001f984620001d0565b620001da565b620001d0565b9050919050565b6000819050919050565b6200022183620001e4565b6200023962000230826200020c565b8484546200017a565b825550505050565b600090565b6200025062000241565b6200025d81848462000216565b505050565b5b8181101562000285576200027960008262000246565b60018101905062000263565b5050565b601f821115620002d4576200029e8162000148565b620002a9846200015d565b81016020851015620002b9578190505b620002d1620002c8856200015d565b83018262000262565b50505b505050565b600082821c905092915050565b6000620002f960001984600802620002d9565b1980831691505092915050565b6000620003148383620002e6565b9150826002028217905092915050565b6200032f82620000aa565b67ffffffffffffffff8111156200034b576200034a620000b5565b5b62000357825462000113565b6200036482828562000289565b600060209050601f8311600181146200039c576000841562000387578287015190505b62000393858262000306565b86555062000403565b601f198416620003ac8662000148565b60005b82811015620003d657848901518255600182019150602085019450602081019050620003af565b86831015620003f65784890151620003f2601f891682620002e6565b8355505b6001600288020188555050505b505050505050565b6140a5806200041b6000396000f3fe608060405234801561001057600080fd5b506004361061010b5760003560e01c80636352211e116100a2578063a22cb46511610071578063a22cb465146102c8578063b88d4fde146102e4578063be08526014610300578063c87b56dd1461031c578063e985e9c51461034c5761010b565b80636352211e1461022e57806370a082311461025e57806395d89b411461028e578063a0d7d118146102ac5761010b565b806323b872dd116100de57806323b872dd146101aa57806342842e0e146101c65780634f558e79146101e25780635bc1fae9146102125761010b565b806301ffc9a71461011057806306fdde0314610140578063081812fc1461015e578063095ea7b31461018e575b600080fd5b61012a60048036038101906101259190612180565b61037c565b60405161013791906121c8565b60405180910390f35b6101486103dd565b6040516101559190612273565b60405180910390f35b610178600480360381019061017391906122cb565b61046f565b6040516101859190612339565b60405180910390f35b6101a860048036038101906101a39190612380565b6104b5565b005b6101c460048036038101906101bf91906123c0565b6105cc565b005b6101e060048036038101906101db91906123c0565b61062c565b005b6101fc60048036038101906101f791906122cb565b61064c565b60405161020991906121c8565b60405180910390f35b61022c60048036038101906102279190612548565b61065e565b005b610248600480360381019061024391906122cb565b6106a8565b6040516102559190612339565b60405180910390f35b61027860048036038101906102739190612606565b61072e565b6040516102859190612642565b60405180910390f35b6102966107e5565b6040516102a39190612273565b60405180910390f35b6102c660048036038101906102c1919061265d565b610877565b005b6102e260048036038101906102dd919061275b565b61091d565b005b6102fe60048036038101906102f9919061283c565b610933565b005b61031a600480360381019061031591906122cb565b610995565b005b610336600480360381019061033191906122cb565b6109a1565b6040516103439190612273565b60405180910390f35b610366600480360381019061036191906128bf565b610ab3565b60405161037391906121c8565b60405180910390f35b6000634906490660e01b7bffffffffffffffffffffffffffffffffffffffffffffffffffffffff1916827bffffffffffffffffffffffffffffffffffffffffffffffffffffffff191614806103d657506103d582610b47565b5b9050919050565b6060600080546103ec9061292e565b80601f01602080910402602001604051908101604052809291908181526020018280546104189061292e565b80156104655780601f1061043a57610100808354040283529160200191610465565b820191906000526020600020905b81548152906001019060200180831161044857829003601f168201915b5050505050905090565b600061047a82610c29565b6004600083815260200190815260200160002060009054906101000a900473ffffffffffffffffffffffffffffffffffffffff169050919050565b60006104c0826106a8565b90508073ffffffffffffffffffffffffffffffffffffffff168373ffffffffffffffffffffffffffffffffffffffff1603610530576040517f08c379a0000000000000000000000000000000000000000000000000000000008152600401610527906129d1565b60405180910390fd5b8073ffffffffffffffffffffffffffffffffffffffff1661054f610c74565b73ffffffffffffffffffffffffffffffffffffffff16148061057e575061057d81610578610c74565b610ab3565b5b6105bd576040517f08c379a00000000000000000000000000000000000000000000000000000000081526004016105b490612a63565b60405180910390fd5b6105c78383610c7c565b505050565b6105dd6105d7610c74565b82610d35565b61061c576040517f08c379a000000000000000000000000000000000000000000000000000000000815260040161061390612af5565b60405180910390fd5b610627838383610dca565b505050565b61064783838360405180602001604052806000815250610933565b505050565b6000610657826110c3565b9050919050565b600061066a6007611104565b9050600061067d89898989898989611112565b905061068933836111ae565b61069382826113cb565b61069d600761146f565b505050505050505050565b6000806106b483611485565b9050600073ffffffffffffffffffffffffffffffffffffffff168173ffffffffffffffffffffffffffffffffffffffff1603610725576040517f08c379a000000000000000000000000000000000000000000000000000000000815260040161071c90612b61565b60405180910390fd5b80915050919050565b60008073ffffffffffffffffffffffffffffffffffffffff168273ffffffffffffffffffffffffffffffffffffffff160361079e576040517f08c379a000000000000000000000000000000000000000000000000000000000815260040161079590612bf3565b60405180910390fd5b600360008373ffffffffffffffffffffffffffffffffffffffff1673ffffffffffffffffffffffffffffffffffffffff168152602001908152602001600020549050919050565b6060600180546107f49061292e565b80601f01602080910402602001604051908101604052809291908181526020018280546108209061292e565b801561086d5780601f106108425761010080835404028352916020019161086d565b820191906000526020600020905b81548152906001019060200180831161085057829003601f168201915b5050505050905090565b60006108e7610885896114c2565b8861088f896114ef565b6108988a6114ef565b6108a18a6114ef565b6108aa8a6114ef565b6108b38a6114ef565b6108bc8a6114ef565b6040516020016108d398979695949392919061323f565b6040516020818303038152906040526115bd565b6040516020016108f79190613447565b604051602081830303815290604052905061091289826113cb565b505050505050505050565b61092f610928610c74565b8383611720565b5050565b61094461093e610c74565b83610d35565b610983576040517f08c379a000000000000000000000000000000000000000000000000000000000815260040161097a90612af5565b60405180910390fd5b61098f8484848461188c565b50505050565b61099e816118e8565b50565b60606109ac82610c29565b60006006600084815260200190815260200160002080546109cc9061292e565b80601f01602080910402602001604051908101604052809291908181526020018280546109f89061292e565b8015610a455780601f10610a1a57610100808354040283529160200191610a45565b820191906000526020600020905b815481529060010190602001808311610a2857829003601f168201915b505050505090506000610a5661193b565b90506000815103610a6b578192505050610aae565b600082511115610aa0578082604051602001610a88929190613469565b60405160208183030381529060405292505050610aae565b610aa984611952565b925050505b919050565b6000600560008473ffffffffffffffffffffffffffffffffffffffff1673ffffffffffffffffffffffffffffffffffffffff16815260200190815260200160002060008373ffffffffffffffffffffffffffffffffffffffff1673ffffffffffffffffffffffffffffffffffffffff16815260200190815260200160002060009054906101000a900460ff16905092915050565b60007f80ac58cd000000000000000000000000000000000000000000000000000000007bffffffffffffffffffffffffffffffffffffffffffffffffffffffff1916827bffffffffffffffffffffffffffffffffffffffffffffffffffffffff19161480610c1257507f5b5e139f000000000000000000000000000000000000000000000000000000007bffffffffffffffffffffffffffffffffffffffffffffffffffffffff1916827bffffffffffffffffffffffffffffffffffffffffffffffffffffffff1916145b80610c225750610c21826119ba565b5b9050919050565b610c32816110c3565b610c71576040517f08c379a0000000000000000000000000000000000000000000000000000000008152600401610c6890612b61565b60405180910390fd5b50565b600033905090565b816004600083815260200190815260200160002060006101000a81548173ffffffffffffffffffffffffffffffffffffffff021916908373ffffffffffffffffffffffffffffffffffffffff160217905550808273ffffffffffffffffffffffffffffffffffffffff16610cef836106a8565b73ffffffffffffffffffffffffffffffffffffffff167f8c5be1e5ebec7d5bd14f71427d1e84f3dd0314c0f7b2291e5b200ac8c7c3b92560405160405180910390a45050565b600080610d41836106a8565b90508073ffffffffffffffffffffffffffffffffffffffff168473ffffffffffffffffffffffffffffffffffffffff161480610d835750610d828185610ab3565b5b80610dc157508373ffffffffffffffffffffffffffffffffffffffff16610da98461046f565b73ffffffffffffffffffffffffffffffffffffffff16145b91505092915050565b8273ffffffffffffffffffffffffffffffffffffffff16610dea826106a8565b73ffffffffffffffffffffffffffffffffffffffff1614610e40576040517f08c379a0000000000000000000000000000000000000000000000000000000008152600401610e37906134ff565b60405180910390fd5b600073ffffffffffffffffffffffffffffffffffffffff168273ffffffffffffffffffffffffffffffffffffffff1603610eaf576040517f08c379a0000000000000000000000000000000000000000000000000000000008152600401610ea690613591565b60405180910390fd5b610ebc8383836001611a24565b8273ffffffffffffffffffffffffffffffffffffffff16610edc826106a8565b73ffffffffffffffffffffffffffffffffffffffff1614610f32576040517f08c379a0000000000000000000000000000000000000000000000000000000008152600401610f29906134ff565b60405180910390fd5b6004600082815260200190815260200160002060006101000a81549073ffffffffffffffffffffffffffffffffffffffff02191690556001600360008573ffffffffffffffffffffffffffffffffffffffff1673ffffffffffffffffffffffffffffffffffffffff168152602001908152602001600020600082825403925050819055506001600360008473ffffffffffffffffffffffffffffffffffffffff1673ffffffffffffffffffffffffffffffffffffffff16815260200190815260200160002060008282540192505081905550816002600083815260200190815260200160002060006101000a81548173ffffffffffffffffffffffffffffffffffffffff021916908373ffffffffffffffffffffffffffffffffffffffff160217905550808273ffffffffffffffffffffffffffffffffffffffff168473ffffffffffffffffffffffffffffffffffffffff167fddf252ad1be2c89b69c2b068fc378daa952ba7f163c4a11628f55a4df523b3ef60405160405180910390a46110be8383836001611a2a565b505050565b60008073ffffffffffffffffffffffffffffffffffffffff166110e583611485565b73ffffffffffffffffffffffffffffffffffffffff1614159050919050565b600081600001549050919050565b6060611182611120896114c2565b8861112a896114ef565b6111338a6114ef565b61113c8a6114ef565b6111458a6114ef565b61114e8a6114ef565b6111578a6114ef565b60405160200161116e9897969594939291906136e1565b6040516020818303038152906040526115bd565b6040516020016111929190613447565b6040516020818303038152906040529050979650505050505050565b600073ffffffffffffffffffffffffffffffffffffffff168273ffffffffffffffffffffffffffffffffffffffff160361121d576040517f08c379a0000000000000000000000000000000000000000000000000000000008152600401611214906138e9565b60405180910390fd5b611226816110c3565b15611266576040517f08c379a000000000000000000000000000000000000000000000000000000000815260040161125d90613955565b60405180910390fd5b611274600083836001611a24565b61127d816110c3565b156112bd576040517f08c379a00000000000000000000000000000000000000000000000000000000081526004016112b490613955565b60405180910390fd5b6001600360008473ffffffffffffffffffffffffffffffffffffffff1673ffffffffffffffffffffffffffffffffffffffff16815260200190815260200160002060008282540192505081905550816002600083815260200190815260200160002060006101000a81548173ffffffffffffffffffffffffffffffffffffffff021916908373ffffffffffffffffffffffffffffffffffffffff160217905550808273ffffffffffffffffffffffffffffffffffffffff16600073ffffffffffffffffffffffffffffffffffffffff167fddf252ad1be2c89b69c2b068fc378daa952ba7f163c4a11628f55a4df523b3ef60405160405180910390a46113c7600083836001611a2a565b5050565b6113d4826110c3565b611413576040517f08c379a000000000000000000000000000000000000000000000000000000000815260040161140a906139e7565b60405180910390fd5b806006600084815260200190815260200160002090816114339190613bb3565b507ff8e1a15aba9398e019f0b49df1a4fde98ee17ae345cb5f6b5e2c27f5033e8ce7826040516114639190612642565b60405180910390a15050565b6001816000016000828254019250508190555050565b60006002600083815260200190815260200160002060009054906101000a900473ffffffffffffffffffffffffffffffffffffffff169050919050565b60606114e88273ffffffffffffffffffffffffffffffffffffffff16601460ff16611a30565b9050919050565b6060600060016114fe84611c6c565b01905060008167ffffffffffffffff81111561151d5761151c61241d565b5b6040519080825280601f01601f19166020018201604052801561154f5781602001600182028036833780820191505090505b509050600082602001820190505b6001156115b2578080600190039150507f3031323334353637383961626364656600000000000000000000000000000000600a86061a8153600a85816115a6576115a5613c85565b5b0494506000850361155d575b819350505050919050565b606060008251036115df5760405180602001604052806000815250905061171b565b6000604051806060016040528060408152602001614030604091399050600060036002855161160e9190613ce3565b6116189190613d17565b60046116249190613d48565b67ffffffffffffffff81111561163d5761163c61241d565b5b6040519080825280601f01601f19166020018201604052801561166f5781602001600182028036833780820191505090505b509050600182016020820185865187015b808210156116db576003820191508151603f8160121c168501518453600184019350603f81600c1c168501518453600184019350603f8160061c168501518453600184019350603f8116850151845360018401935050611680565b50506003865106600181146116f7576002811461170a57611712565b603d6001830353603d6002830353611712565b603d60018303535b50505080925050505b919050565b8173ffffffffffffffffffffffffffffffffffffffff168373ffffffffffffffffffffffffffffffffffffffff160361178e576040517f08c379a000000000000000000000000000000000000000000000000000000000815260040161178590613dd6565b60405180910390fd5b80600560008573ffffffffffffffffffffffffffffffffffffffff1673ffffffffffffffffffffffffffffffffffffffff16815260200190815260200160002060008473ffffffffffffffffffffffffffffffffffffffff1673ffffffffffffffffffffffffffffffffffffffff16815260200190815260200160002060006101000a81548160ff0219169083151502179055508173ffffffffffffffffffffffffffffffffffffffff168373ffffffffffffffffffffffffffffffffffffffff167f17307eab39ab6107e8899845ad3d59bd9653f200f220920489ca2b5937696c318360405161187f91906121c8565b60405180910390a3505050565b611897848484610dca565b6118a384848484611dbf565b6118e2576040517f08c379a00000000000000000000000000000000000000000000000000000000081526004016118d990613e68565b60405180910390fd5b50505050565b6118f181611f46565b60006006600083815260200190815260200160002080546119119061292e565b9050146119385760066000828152602001908152602001600020600061193791906120b7565b5b50565b606060405180602001604052806000815250905090565b606061195d82610c29565b600061196761193b565b9050600081511161198757604051806020016040528060008152506119b2565b80611991846114ef565b6040516020016119a2929190613469565b6040516020818303038152906040525b915050919050565b60007f01ffc9a7000000000000000000000000000000000000000000000000000000007bffffffffffffffffffffffffffffffffffffffffffffffffffffffff1916827bffffffffffffffffffffffffffffffffffffffffffffffffffffffff1916149050919050565b50505050565b50505050565b606060006002836002611a439190613d48565b611a4d9190613ce3565b67ffffffffffffffff811115611a6657611a6561241d565b5b6040519080825280601f01601f191660200182016040528015611a985781602001600182028036833780820191505090505b5090507f300000000000000000000000000000000000000000000000000000000000000081600081518110611ad057611acf613e88565b5b60200101907effffffffffffffffffffffffffffffffffffffffffffffffffffffffffffff1916908160001a9053507f780000000000000000000000000000000000000000000000000000000000000081600181518110611b3457611b33613e88565b5b60200101907effffffffffffffffffffffffffffffffffffffffffffffffffffffffffffff1916908160001a90535060006001846002611b749190613d48565b611b7e9190613ce3565b90505b6001811115611c1e577f3031323334353637383961626364656600000000000000000000000000000000600f861660108110611bc057611bbf613e88565b5b1a60f81b828281518110611bd757611bd6613e88565b5b60200101907effffffffffffffffffffffffffffffffffffffffffffffffffffffffffffff1916908160001a905350600485901c945080611c1790613eb7565b9050611b81565b5060008414611c62576040517f08c379a0000000000000000000000000000000000000000000000000000000008152600401611c5990613f2c565b60405180910390fd5b8091505092915050565b600080600090507a184f03e93ff9f4daa797ed6e38ed64bf6a1f0100000000000000008310611cca577a184f03e93ff9f4daa797ed6e38ed64bf6a1f0100000000000000008381611cc057611cbf613c85565b5b0492506040810190505b6d04ee2d6d415b85acef81000000008310611d07576d04ee2d6d415b85acef81000000008381611cfd57611cfc613c85565b5b0492506020810190505b662386f26fc100008310611d3657662386f26fc100008381611d2c57611d2b613c85565b5b0492506010810190505b6305f5e1008310611d5f576305f5e1008381611d5557611d54613c85565b5b0492506008810190505b6127108310611d84576127108381611d7a57611d79613c85565b5b0492506004810190505b60648310611da75760648381611d9d57611d9c613c85565b5b0492506002810190505b600a8310611db6576001810190505b80915050919050565b6000611de08473ffffffffffffffffffffffffffffffffffffffff16612094565b15611f39578373ffffffffffffffffffffffffffffffffffffffff1663150b7a02611e09610c74565b8786866040518563ffffffff1660e01b8152600401611e2b9493929190613fa1565b6020604051808303816000875af1925050508015611e6757506040513d601f19601f82011682018060405250810190611e649190614002565b60015b611ee9573d8060008114611e97576040519150601f19603f3d011682016040523d82523d6000602084013e611e9c565b606091505b506000815103611ee1576040517f08c379a0000000000000000000000000000000000000000000000000000000008152600401611ed890613e68565b60405180910390fd5b805181602001fd5b63150b7a0260e01b7bffffffffffffffffffffffffffffffffffffffffffffffffffffffff1916817bffffffffffffffffffffffffffffffffffffffffffffffffffffffff191614915050611f3e565b600190505b949350505050565b6000611f51826106a8565b9050611f61816000846001611a24565b611f6a826106a8565b90506004600083815260200190815260200160002060006101000a81549073ffffffffffffffffffffffffffffffffffffffff02191690556001600360008373ffffffffffffffffffffffffffffffffffffffff1673ffffffffffffffffffffffffffffffffffffffff168152602001908152602001600020600082825403925050819055506002600083815260200190815260200160002060006101000a81549073ffffffffffffffffffffffffffffffffffffffff021916905581600073ffffffffffffffffffffffffffffffffffffffff168273ffffffffffffffffffffffffffffffffffffffff167fddf252ad1be2c89b69c2b068fc378daa952ba7f163c4a11628f55a4df523b3ef60405160405180910390a4612090816000846001611a2a565b5050565b6000808273ffffffffffffffffffffffffffffffffffffffff163b119050919050565b5080546120c39061292e565b6000825580601f106120d557506120f4565b601f0160209004906000526020600020908101906120f391906120f7565b5b50565b5b808211156121105760008160009055506001016120f8565b5090565b6000604051905090565b600080fd5b600080fd5b60007fffffffff0000000000000000000000000000000000000000000000000000000082169050919050565b61215d81612128565b811461216857600080fd5b50565b60008135905061217a81612154565b92915050565b6000602082840312156121965761219561211e565b5b60006121a48482850161216b565b91505092915050565b60008115159050919050565b6121c2816121ad565b82525050565b60006020820190506121dd60008301846121b9565b92915050565b600081519050919050565b600082825260208201905092915050565b60005b8381101561221d578082015181840152602081019050612202565b60008484015250505050565b6000601f19601f8301169050919050565b6000612245826121e3565b61224f81856121ee565b935061225f8185602086016121ff565b61226881612229565b840191505092915050565b6000602082019050818103600083015261228d818461223a565b905092915050565b6000819050919050565b6122a881612295565b81146122b357600080fd5b50565b6000813590506122c58161229f565b92915050565b6000602082840312156122e1576122e061211e565b5b60006122ef848285016122b6565b91505092915050565b600073ffffffffffffffffffffffffffffffffffffffff82169050919050565b6000612323826122f8565b9050919050565b61233381612318565b82525050565b600060208201905061234e600083018461232a565b92915050565b61235d81612318565b811461236857600080fd5b50565b60008135905061237a81612354565b92915050565b600080604083850312156123975761239661211e565b5b60006123a58582860161236b565b92505060206123b6858286016122b6565b9150509250929050565b6000806000606084860312156123d9576123d861211e565b5b60006123e78682870161236b565b93505060206123f88682870161236b565b9250506040612409868287016122b6565b9150509250925092565b600080fd5b600080fd5b7f4e487b7100000000000000000000000000000000000000000000000000000000600052604160045260246000fd5b61245582612229565b810181811067ffffffffffffffff821117156124745761247361241d565b5b80604052505050565b6000612487612114565b9050612493828261244c565b919050565b600067ffffffffffffffff8211156124b3576124b261241d565b5b6124bc82612229565b9050602081019050919050565b82818337600083830152505050565b60006124eb6124e684612498565b61247d565b90508281526020810184848401111561250757612506612418565b5b6125128482856124c9565b509392505050565b600082601f83011261252f5761252e612413565b5b813561253f8482602086016124d8565b91505092915050565b600080600080600080600060e0888a0312156125675761256661211e565b5b60006125758a828b0161236b565b975050602088013567ffffffffffffffff81111561259657612595612123565b5b6125a28a828b0161251a565b96505060406125b38a828b016122b6565b95505060606125c48a828b016122b6565b94505060806125d58a828b016122b6565b93505060a06125e68a828b016122b6565b92505060c06125f78a828b016122b6565b91505092959891949750929550565b60006020828403121561261c5761261b61211e565b5b600061262a8482850161236b565b91505092915050565b61263c81612295565b82525050565b60006020820190506126576000830184612633565b92915050565b600080600080600080600080610100898b03121561267e5761267d61211e565b5b600061268c8b828c016122b6565b985050602061269d8b828c0161236b565b975050604089013567ffffffffffffffff8111156126be576126bd612123565b5b6126ca8b828c0161251a565b96505060606126db8b828c016122b6565b95505060806126ec8b828c016122b6565b94505060a06126fd8b828c016122b6565b93505060c061270e8b828c016122b6565b92505060e061271f8b828c016122b6565b9150509295985092959890939650565b612738816121ad565b811461274357600080fd5b50565b6000813590506127558161272f565b92915050565b600080604083850312156127725761277161211e565b5b60006127808582860161236b565b925050602061279185828601612746565b9150509250929050565b600067ffffffffffffffff8211156127b6576127b561241d565b5b6127bf82612229565b9050602081019050919050565b60006127df6127da8461279b565b61247d565b9050828152602081018484840111156127fb576127fa612418565b5b6128068482856124c9565b509392505050565b600082601f83011261282357612822612413565b5b81356128338482602086016127cc565b91505092915050565b600080600080608085870312156128565761285561211e565b5b60006128648782880161236b565b94505060206128758782880161236b565b9350506040612886878288016122b6565b925050606085013567ffffffffffffffff8111156128a7576128a6612123565b5b6128b38782880161280e565b91505092959194509250565b600080604083850312156128d6576128d561211e565b5b60006128e48582860161236b565b92505060206128f58582860161236b565b9150509250929050565b7f4e487b7100000000000000000000000000000000000000000000000000000000600052602260045260246000fd5b6000600282049050600182168061294657607f821691505b602082108103612959576129586128ff565b5b50919050565b7f4552433732313a20617070726f76616c20746f2063757272656e74206f776e6560008201527f7200000000000000000000000000000000000000000000000000000000000000602082015250565b60006129bb6021836121ee565b91506129c68261295f565b604082019050919050565b600060208201905081810360008301526129ea816129ae565b9050919050565b7f4552433732313a20617070726f76652063616c6c6572206973206e6f7420746f60008201527f6b656e206f776e6572206f7220617070726f76656420666f7220616c6c000000602082015250565b6000612a4d603d836121ee565b9150612a58826129f1565b604082019050919050565b60006020820190508181036000830152612a7c81612a40565b9050919050565b7f4552433732313a2063616c6c6572206973206e6f7420746f6b656e206f776e6560008201527f72206f7220617070726f76656400000000000000000000000000000000000000602082015250565b6000612adf602d836121ee565b9150612aea82612a83565b604082019050919050565b60006020820190508181036000830152612b0e81612ad2565b9050919050565b7f4552433732313a20696e76616c696420746f6b656e2049440000000000000000600082015250565b6000612b4b6018836121ee565b9150612b5682612b15565b602082019050919050565b60006020820190508181036000830152612b7a81612b3e565b9050919050565b7f4552433732313a2061646472657373207a65726f206973206e6f74206120766160008201527f6c6964206f776e65720000000000000000000000000000000000000000000000602082015250565b6000612bdd6029836121ee565b9150612be882612b81565b604082019050919050565b60006020820190508181036000830152612c0c81612bd0565b9050919050565b600081905092915050565b7f7b226e616d65223a20225374616b65325265736572766520566973697465642060008201527f4e4654222c000000000000000000000000000000000000000000000000000000602082015250565b6000612c7a602583612c13565b9150612c8582612c1e565b602582019050919050565b7f226465736372697074696f6e223a202256697369746564204e4654206465736360008201527f72697074696f6e222c0000000000000000000000000000000000000000000000602082015250565b6000612cec602983612c13565b9150612cf782612c90565b602982019050919050565b7f22696d616765223a202268747470733a2f2f692e696d6775722e636f6d2f306d60008201527f46536c62472e6a706567222c0000000000000000000000000000000000000000602082015250565b6000612d5e602c83612c13565b9150612d6982612d02565b602c82019050919050565b7f2261747472696275746573223a205b0000000000000000000000000000000000600082015250565b6000612daa600f83612c13565b9150612db582612d74565b600f82019050919050565b7f7b2274726169745f74797065223a202253686f702041646472657373222c0000600082015250565b6000612df6601e83612c13565b9150612e0182612dc0565b601e82019050919050565b7f2276616c7565223a202200000000000000000000000000000000000000000000600082015250565b6000612e42600a83612c13565b9150612e4d82612e0c565b600a82019050919050565b6000612e63826121e3565b612e6d8185612c13565b9350612e7d8185602086016121ff565b80840191505092915050565b7f227d2c0000000000000000000000000000000000000000000000000000000000600082015250565b6000612ebf600383612c13565b9150612eca82612e89565b600382019050919050565b7f7b2274726169745f74797065223a202253686f70204e616d65222c0000000000600082015250565b6000612f0b601b83612c13565b9150612f1682612ed5565b601b82019050919050565b7f7b2274726169745f74797065223a20225265736572766174696f6e204461746560008201527f222c000000000000000000000000000000000000000000000000000000000000602082015250565b6000612f7d602283612c13565b9150612f8882612f21565b602282019050919050565b7f22646973706c61795f74797065223a202264617465222c000000000000000000600082015250565b6000612fc9601783612c13565b9150612fd482612f93565b601782019050919050565b7f7b2274726169745f74797065223a20225265736572766174696f6e205374617260008201527f742054696d65222c000000000000000000000000000000000000000000000000602082015250565b600061303b602883612c13565b915061304682612fdf565b602882019050919050565b7f7b2274726169745f74797065223a20225265736572766174696f6e20456e642060008201527f54696d65222c0000000000000000000000000000000000000000000000000000602082015250565b60006130ad602683612c13565b91506130b882613051565b602682019050919050565b7f7b2274726169745f74797065223a2022477565737420436f756e74222c000000600082015250565b60006130f9601d83612c13565b9150613104826130c3565b601d82019050919050565b7f7b2274726169745f74797065223a2022436f75727365204964222c0000000000600082015250565b6000613145601b83612c13565b91506131508261310f565b601b82019050919050565b7f7b2274726169745f74797065223a202243616e63656c20466565222c00000000600082015250565b6000613191601c83612c13565b915061319c8261315b565b601c82019050919050565b7f227d000000000000000000000000000000000000000000000000000000000000600082015250565b60006131dd600283612c13565b91506131e8826131a7565b600282019050919050565b7f5d7d000000000000000000000000000000000000000000000000000000000000600082015250565b6000613229600283612c13565b9150613234826131f3565b600282019050919050565b600061324a82612c6d565b915061325582612cdf565b915061326082612d51565b915061326b82612d9d565b915061327682612de9565b915061328182612e35565b915061328d828b612e58565b915061329882612eb2565b91506132a382612efe565b91506132ae82612e35565b91506132ba828a612e58565b91506132c582612eb2565b91506132d082612f70565b91506132db82612fbc565b91506132e682612e35565b91506132f28289612e58565b91506132fd82612eb2565b91506133088261302e565b915061331382612e35565b915061331f8288612e58565b915061332a82612eb2565b9150613335826130a0565b915061334082612e35565b915061334c8287612e58565b915061335782612eb2565b9150613362826130ec565b915061336d82612e35565b91506133798286612e58565b915061338482612eb2565b915061338f82613138565b915061339a82612e35565b91506133a68285612e58565b91506133b182612eb2565b91506133bc82613184565b91506133c782612e35565b91506133d38284612e58565b91506133de826131d0565b91506133e98261321c565b91508190509998505050505050505050565b7f646174613a6170706c69636174696f6e2f6a736f6e3b6261736536342c000000600082015250565b6000613431601d83612c13565b915061343c826133fb565b601d82019050919050565b600061345282613424565b915061345e8284612e58565b915081905092915050565b60006134758285612e58565b91506134818284612e58565b91508190509392505050565b7f4552433732313a207472616e736665722066726f6d20696e636f72726563742060008201527f6f776e6572000000000000000000000000000000000000000000000000000000602082015250565b60006134e96025836121ee565b91506134f48261348d565b604082019050919050565b60006020820190508181036000830152613518816134dc565b9050919050565b7f4552433732313a207472616e7366657220746f20746865207a65726f2061646460008201527f7265737300000000000000000000000000000000000000000000000000000000602082015250565b600061357b6024836121ee565b91506135868261351f565b604082019050919050565b600060208201905081810360008301526135aa8161356e565b9050919050565b7f7b226e616d65223a20225374616b65325265736572766520526573657276617460008201527f696f6e204e4654222c0000000000000000000000000000000000000000000000602082015250565b600061360d602983612c13565b9150613618826135b1565b602982019050919050565b7f226465736372697074696f6e223a202250656e6775696e222c00000000000000600082015250565b6000613659601983612c13565b915061366482613623565b601982019050919050565b7f22696d616765223a202268747470733a2f2f692e696d6775722e636f6d2f543260008201527f4635314b6e2e6a706567222c0000000000000000000000000000000000000000602082015250565b60006136cb602c83612c13565b91506136d68261366f565b602c82019050919050565b60006136ec82613600565b91506136f78261364c565b9150613702826136be565b915061370d82612d9d565b915061371882612de9565b915061372382612e35565b915061372f828b612e58565b915061373a82612eb2565b915061374582612efe565b915061375082612e35565b915061375c828a612e58565b915061376782612eb2565b915061377282612f70565b915061377d82612fbc565b915061378882612e35565b91506137948289612e58565b915061379f82612eb2565b91506137aa8261302e565b91506137b582612e35565b91506137c18288612e58565b91506137cc82612eb2565b91506137d7826130a0565b91506137e282612e35565b91506137ee8287612e58565b91506137f982612eb2565b9150613804826130ec565b915061380f82612e35565b915061381b8286612e58565b915061382682612eb2565b915061383182613138565b915061383c82612e35565b91506138488285612e58565b915061385382612eb2565b915061385e82613184565b915061386982612e35565b91506138758284612e58565b9150613880826131d0565b915061388b8261321c565b91508190509998505050505050505050565b7f4552433732313a206d696e7420746f20746865207a65726f2061646472657373600082015250565b60006138d36020836121ee565b91506138de8261389d565b602082019050919050565b60006020820190508181036000830152613902816138c6565b9050919050565b7f4552433732313a20746f6b656e20616c7265616479206d696e74656400000000600082015250565b600061393f601c836121ee565b915061394a82613909565b602082019050919050565b6000602082019050818103600083015261396e81613932565b9050919050565b7f45524337323155524953746f726167653a2055524920736574206f66206e6f6e60008201527f6578697374656e7420746f6b656e000000000000000000000000000000000000602082015250565b60006139d1602e836121ee565b91506139dc82613975565b604082019050919050565b60006020820190508181036000830152613a00816139c4565b9050919050565b60008190508160005260206000209050919050565b60006020601f8301049050919050565b600082821b905092915050565b600060088302613a697fffffffffffffffffffffffffffffffffffffffffffffffffffffffffffffffff82613a2c565b613a738683613a2c565b95508019841693508086168417925050509392505050565b6000819050919050565b6000613ab0613aab613aa684612295565b613a8b565b612295565b9050919050565b6000819050919050565b613aca83613a95565b613ade613ad682613ab7565b848454613a39565b825550505050565b600090565b613af3613ae6565b613afe818484613ac1565b505050565b5b81811015613b2257613b17600082613aeb565b600181019050613b04565b5050565b601f821115613b6757613b3881613a07565b613b4184613a1c565b81016020851015613b50578190505b613b64613b5c85613a1c565b830182613b03565b50505b505050565b600082821c905092915050565b6000613b8a60001984600802613b6c565b1980831691505092915050565b6000613ba38383613b79565b9150826002028217905092915050565b613bbc826121e3565b67ffffffffffffffff811115613bd557613bd461241d565b5b613bdf825461292e565b613bea828285613b26565b600060209050601f831160018114613c1d5760008415613c0b578287015190505b613c158582613b97565b865550613c7d565b601f198416613c2b86613a07565b60005b82811015613c5357848901518255600182019150602085019450602081019050613c2e565b86831015613c705784890151613c6c601f891682613b79565b8355505b6001600288020188555050505b505050505050565b7f4e487b7100000000000000000000000000000000000000000000000000000000600052601260045260246000fd5b7f4e487b7100000000000000000000000000000000000000000000000000000000600052601160045260246000fd5b6000613cee82612295565b9150613cf983612295565b9250828201905080821115613d1157613d10613cb4565b5b92915050565b6000613d2282612295565b9150613d2d83612295565b925082613d3d57613d3c613c85565b5b828204905092915050565b6000613d5382612295565b9150613d5e83612295565b9250828202613d6c81612295565b91508282048414831517613d8357613d82613cb4565b5b5092915050565b7f4552433732313a20617070726f766520746f2063616c6c657200000000000000600082015250565b6000613dc06019836121ee565b9150613dcb82613d8a565b602082019050919050565b60006020820190508181036000830152613def81613db3565b9050919050565b7f4552433732313a207472616e7366657220746f206e6f6e20455243373231526560008201527f63656976657220696d706c656d656e7465720000000000000000000000000000602082015250565b6000613e526032836121ee565b9150613e5d82613df6565b604082019050919050565b60006020820190508181036000830152613e8181613e45565b9050919050565b7f4e487b7100000000000000000000000000000000000000000000000000000000600052603260045260246000fd5b6000613ec282612295565b915060008203613ed557613ed4613cb4565b5b600182039050919050565b7f537472696e67733a20686578206c656e67746820696e73756666696369656e74600082015250565b6000613f166020836121ee565b9150613f2182613ee0565b602082019050919050565b60006020820190508181036000830152613f4581613f09565b9050919050565b600081519050919050565b600082825260208201905092915050565b6000613f7382613f4c565b613f7d8185613f57565b9350613f8d8185602086016121ff565b613f9681612229565b840191505092915050565b6000608082019050613fb6600083018761232a565b613fc3602083018661232a565b613fd06040830185612633565b8181036060830152613fe28184613f68565b905095945050505050565b600081519050613ffc81612154565b92915050565b6000602082840312156140185761401761211e565b5b600061402684828501613fed565b9150509291505056fe4142434445464748494a4b4c4d4e4f505152535455565758595a6162636465666768696a6b6c6d6e6f707172737475767778797a303132333435363738392b2fa2646970667358221220972fe0f187aaae8da0e2da50567e4af9229dac29ff9eb9c9630210e701cd176764736f6c63430008130033",
  "linkReferences": {},
  "deployedLinkReferences": {}
}