{
  "_format": "hh-sol-artifact-1",
  "contractName": "Stake2Reserve",
  "sourceName": "contracts/Stake2Reserve.sol",
  "abi": [
    {
      "inputs": [
        {
          "internalType": "address",
          "name": "_USDCAddress",
          "type": "address"
        },
        {
          "internalType": "address",
          "name": "_S2RNFTAddress",
          "type": "address"
        },
        {
          "internalType": "address",
          "name": "_S2RAaveAddress",
          "type": "address"
        }
      ],
      "stateMutability": "nonpayable",
      "type": "constructor"
    },
    {
      "anonymous": false,
      "inputs": [
        {
          "indexed": false,
          "internalType": "uint256",
          "name": "tokenId",
          "type": "uint256"
        },
        {
          "indexed": false,
          "internalType": "uint256",
          "name": "customerPaymentAmount",
          "type": "uint256"
        },
        {
          "indexed": false,
          "internalType": "address",
          "name": "customerAddress",
          "type": "address"
        }
      ],
      "name": "CheckOut",
      "type": "event"
    },
    {
      "anonymous": false,
      "inputs": [
        {
          "indexed": false,
          "internalType": "string",
          "name": "name",
          "type": "string"
        },
        {
          "indexed": false,
          "internalType": "bool[7]",
          "name": "openingWeekDays",
          "type": "bool[7]"
        },
        {
          "indexed": false,
          "internalType": "uint256",
          "name": "openingTime",
          "type": "uint256"
        },
        {
          "indexed": false,
          "internalType": "uint256",
          "name": "closingTime",
          "type": "uint256"
        },
        {
          "components": [
            {
              "internalType": "string",
              "name": "name",
              "type": "string"
            },
            {
              "internalType": "uint256",
              "name": "cancelFee",
              "type": "uint256"
            },
            {
              "internalType": "string[]",
              "name": "imageURLs",
              "type": "string[]"
            }
          ],
          "indexed": false,
          "internalType": "struct Stake2Reserve.Course[]",
          "name": "courses",
          "type": "tuple[]"
        },
        {
          "indexed": false,
          "internalType": "string",
          "name": "imageURL",
          "type": "string"
        },
        {
          "indexed": false,
          "internalType": "string",
          "name": "genre",
          "type": "string"
        },
        {
          "indexed": false,
          "internalType": "string",
          "name": "description",
          "type": "string"
        }
      ],
      "name": "RegisterShopProperty",
      "type": "event"
    },
    {
      "anonymous": false,
      "inputs": [
        {
          "indexed": false,
          "internalType": "address",
          "name": "shopAddress",
          "type": "address"
        },
        {
          "indexed": false,
          "internalType": "uint256",
          "name": "startingTime",
          "type": "uint256"
        },
        {
          "indexed": false,
          "internalType": "uint256",
          "name": "endingTime",
          "type": "uint256"
        },
        {
          "indexed": false,
          "internalType": "uint256",
          "name": "guestCount",
          "type": "uint256"
        },
        {
          "indexed": false,
          "internalType": "uint256",
          "name": "courseId",
          "type": "uint256"
        }
      ],
      "name": "Reservation",
      "type": "event"
    },
    {
      "anonymous": false,
      "inputs": [
        {
          "indexed": false,
          "internalType": "uint256",
          "name": "tokenId",
          "type": "uint256"
        },
        {
          "indexed": false,
          "internalType": "uint256",
          "name": "paymentAmount",
          "type": "uint256"
        },
        {
          "indexed": false,
          "internalType": "address",
          "name": "shopAddress",
          "type": "address"
        }
      ],
      "name": "SetPaymentAmount",
      "type": "event"
    },
    {
      "inputs": [
        {
          "internalType": "uint256",
          "name": "_tokenId",
          "type": "uint256"
        }
      ],
      "name": "checkOut",
      "outputs": [],
      "stateMutability": "nonpayable",
      "type": "function"
    },
    {
      "inputs": [
        {
          "internalType": "address",
          "name": "_shopAddress",
          "type": "address"
        },
        {
          "internalType": "uint256",
          "name": "_courseId",
          "type": "uint256"
        }
      ],
      "name": "getCourses",
      "outputs": [
        {
          "components": [
            {
              "internalType": "string",
              "name": "name",
              "type": "string"
            },
            {
              "internalType": "uint256",
              "name": "cancelFee",
              "type": "uint256"
            },
            {
              "internalType": "string[]",
              "name": "imageURLs",
              "type": "string[]"
            }
          ],
          "internalType": "struct Stake2Reserve.Course",
          "name": "",
          "type": "tuple"
        }
      ],
      "stateMutability": "view",
      "type": "function"
    },
    {
      "inputs": [
        {
          "internalType": "address",
          "name": "_shopAddress",
          "type": "address"
        }
      ],
      "name": "getEligibleNFTs",
      "outputs": [
        {
          "internalType": "uint256[]",
          "name": "",
          "type": "uint256[]"
        }
      ],
      "stateMutability": "view",
      "type": "function"
    },
    {
      "inputs": [
        {
          "internalType": "address",
          "name": "_shopAddress",
          "type": "address"
        }
      ],
      "name": "getNoShowNFTs",
      "outputs": [
        {
          "internalType": "uint256[]",
          "name": "",
          "type": "uint256[]"
        }
      ],
      "stateMutability": "view",
      "type": "function"
    },
    {
      "inputs": [
        {
          "internalType": "uint256",
          "name": "_tokenId",
          "type": "uint256"
        }
      ],
      "name": "getReservationData",
      "outputs": [
        {
          "components": [
            {
              "internalType": "address",
              "name": "shopAddress",
              "type": "address"
            },
            {
              "internalType": "string",
              "name": "shopName",
              "type": "string"
            },
            {
              "internalType": "uint256",
              "name": "startingTime",
              "type": "uint256"
            },
            {
              "internalType": "uint256",
              "name": "endingTime",
              "type": "uint256"
            },
            {
              "internalType": "uint256",
              "name": "guestCount",
              "type": "uint256"
            },
            {
              "internalType": "uint256",
              "name": "courseId",
              "type": "uint256"
            },
            {
              "internalType": "uint256",
              "name": "paymentAmount",
              "type": "uint256"
            },
            {
              "internalType": "bool",
              "name": "isCheckedOut",
              "type": "bool"
            }
          ],
          "internalType": "struct Stake2Reserve.ReservationData",
          "name": "",
          "type": "tuple"
        }
      ],
      "stateMutability": "view",
      "type": "function"
    },
    {
      "inputs": [],
      "name": "getShopAddresses",
      "outputs": [
        {
          "internalType": "address[]",
          "name": "",
          "type": "address[]"
        }
      ],
      "stateMutability": "view",
      "type": "function"
    },
    {
      "inputs": [
        {
          "internalType": "address",
          "name": "_shopAddress",
          "type": "address"
        }
      ],
      "name": "getShopStatus",
      "outputs": [
        {
          "components": [
            {
              "internalType": "bool[7]",
              "name": "openingWeekDays",
              "type": "bool[7]"
            },
            {
              "internalType": "uint256",
              "name": "openingTime",
              "type": "uint256"
            },
            {
              "internalType": "uint256",
              "name": "closingTime",
              "type": "uint256"
            },
            {
              "internalType": "string",
              "name": "name",
              "type": "string"
            },
            {
              "internalType": "string",
              "name": "imageURL",
              "type": "string"
            },
            {
              "internalType": "string",
              "name": "genre",
              "type": "string"
            },
            {
              "internalType": "string",
              "name": "description",
              "type": "string"
            }
          ],
          "internalType": "struct Stake2Reserve.ShopStatusWithoutCources",
          "name": "",
          "type": "tuple"
        }
      ],
      "stateMutability": "view",
      "type": "function"
    },
    {
      "inputs": [
        {
          "internalType": "uint256",
          "name": "_unixTime",
          "type": "uint256"
        }
      ],
      "name": "getTime",
      "outputs": [
        {
          "internalType": "uint256",
          "name": "",
          "type": "uint256"
        }
      ],
      "stateMutability": "view",
      "type": "function"
    },
    {
      "inputs": [
        {
          "internalType": "uint256",
          "name": "_unixTime",
          "type": "uint256"
        }
      ],
      "name": "getWeekDay",
      "outputs": [
        {
          "internalType": "uint256",
          "name": "",
          "type": "uint256"
        }
      ],
      "stateMutability": "view",
      "type": "function"
    },
    {
      "inputs": [
        {
          "internalType": "string",
          "name": "_name",
          "type": "string"
        },
        {
          "internalType": "bool[7]",
          "name": "_openingWeekDays",
          "type": "bool[7]"
        },
        {
          "internalType": "uint256",
          "name": "_openingTime",
          "type": "uint256"
        },
        {
          "internalType": "uint256",
          "name": "_closingTime",
          "type": "uint256"
        },
        {
          "components": [
            {
              "internalType": "string",
              "name": "name",
              "type": "string"
            },
            {
              "internalType": "uint256",
              "name": "cancelFee",
              "type": "uint256"
            },
            {
              "internalType": "string[]",
              "name": "imageURLs",
              "type": "string[]"
            }
          ],
          "internalType": "struct Stake2Reserve.Course[]",
          "name": "_courses",
          "type": "tuple[]"
        },
        {
          "internalType": "string",
          "name": "_imageURL",
          "type": "string"
        },
        {
          "internalType": "string",
          "name": "_genre",
          "type": "string"
        },
        {
          "internalType": "string",
          "name": "_description",
          "type": "string"
        }
      ],
      "name": "registerShopProperty",
      "outputs": [],
      "stateMutability": "nonpayable",
      "type": "function"
    },
    {
      "inputs": [
        {
          "internalType": "address",
          "name": "_shopAddress",
          "type": "address"
        },
        {
          "internalType": "uint256",
          "name": "_startingTime",
          "type": "uint256"
        },
        {
          "internalType": "uint256",
          "name": "_endingTime",
          "type": "uint256"
        },
        {
          "internalType": "uint256",
          "name": "_guestCount",
          "type": "uint256"
        },
        {
          "internalType": "uint256",
          "name": "_courseId",
          "type": "uint256"
        }
      ],
      "name": "reserve",
      "outputs": [],
      "stateMutability": "nonpayable",
      "type": "function"
    },
    {
      "inputs": [
        {
          "internalType": "uint256",
          "name": "_tokenId",
          "type": "uint256"
        },
        {
          "internalType": "uint256",
          "name": "_paymentAmount",
          "type": "uint256"
        }
      ],
      "name": "setPaymentAmount",
      "outputs": [],
      "stateMutability": "nonpayable",
      "type": "function"
    }
  ],
  "bytecode": "0x60806040526363b1054060015561a8c06002553480156200001f57600080fd5b506040516200468d3803806200468d8339818101604052810190620000459190620002da565b62000056836200016360201b60201c565b82600360006101000a81548173ffffffffffffffffffffffffffffffffffffffff021916908373ffffffffffffffffffffffffffffffffffffffff16021790555081600460006101000a81548173ffffffffffffffffffffffffffffffffffffffff021916908373ffffffffffffffffffffffffffffffffffffffff16021790555080600560006101000a81548173ffffffffffffffffffffffffffffffffffffffff021916908373ffffffffffffffffffffffffffffffffffffffff16021790555080600660006101000a81548173ffffffffffffffffffffffffffffffffffffffff021916908373ffffffffffffffffffffffffffffffffffffffff16021790555050505062000393565b62000203816040516024016200017a919062000347565b6040516020818303038152906040527f2c2ecbc2000000000000000000000000000000000000000000000000000000007bffffffffffffffffffffffffffffffffffffffffffffffffffffffff19166020820180517bffffffffffffffffffffffffffffffffffffffffffffffffffffffff83818316178352505050506200020660201b60201c565b50565b6200022c81620002276200022f60201b62001fa3176200025060201b60201c565b60201c565b50565b60006a636f6e736f6c652e6c6f679050600080835160208501845afa505050565b6200026460201b6200234a17819050919050565b6200026e62000364565b565b600080fd5b600073ffffffffffffffffffffffffffffffffffffffff82169050919050565b6000620002a28262000275565b9050919050565b620002b48162000295565b8114620002c057600080fd5b50565b600081519050620002d481620002a9565b92915050565b600080600060608486031215620002f657620002f562000270565b5b60006200030686828701620002c3565b93505060206200031986828701620002c3565b92505060406200032c86828701620002c3565b9150509250925092565b620003418162000295565b82525050565b60006020820190506200035e600083018462000336565b92915050565b7f4e487b7100000000000000000000000000000000000000000000000000000000600052605160045260246000fd5b6142ea80620003a36000396000f3fe608060405234801561001057600080fd5b50600436106100b45760003560e01c80634c871bda116100715780634c871bda1461018b5780636a56cee9146101bb57806373627826146101d757806390fdac8f14610207578063a87090f014610237578063e8de3b5914610267576100b4565b806303ad76d5146100b95780631bd2eeee146100e95780631eaa6779146101055780631f70a284146101215780632f69326b1461013d5780634c2ff1111461016d575b600080fd5b6100d360048036038101906100ce91906125f4565b610297565b6040516100e091906127cc565b60405180910390f35b61010360048036038101906100fe91906125f4565b6103fa565b005b61011f600480360381019061011a9190612c6d565b610725565b005b61013b60048036038101906101369190612de1565b61080d565b005b61015760048036038101906101529190612e5c565b610f7f565b6040516101649190612fb5565b60405180910390f35b610175611162565b6040516101829190613086565b60405180910390f35b6101a560048036038101906101a091906130a8565b6111f0565b6040516101b29190613184565b60405180910390f35b6101d560048036038101906101d091906131a6565b6115ae565b005b6101f160048036038101906101ec91906125f4565b6116e2565b6040516101fe91906131f5565b60405180910390f35b610221600480360381019061021c91906125f4565b611712565b60405161022e91906131f5565b60405180910390f35b610251600480360381019061024c91906130a8565b611756565b60405161025e9190613184565b60405180910390f35b610281600480360381019061027c91906130a8565b611b13565b60405161028e9190613363565b60405180910390f35b61029f612354565b60096000838152602001908152602001600020604051806101000160405290816000820160009054906101000a900473ffffffffffffffffffffffffffffffffffffffff1673ffffffffffffffffffffffffffffffffffffffff1673ffffffffffffffffffffffffffffffffffffffff168152602001600182018054610324906133b4565b80601f0160208091040260200160405190810160405280929190818152602001828054610350906133b4565b801561039d5780601f106103725761010080835404028352916020019161039d565b820191906000526020600020905b81548152906001019060200180831161038057829003601f168201915b5050505050815260200160028201548152602001600382015481526020016004820154815260200160058201548152602001600682015481526020016007820160009054906101000a900460ff1615151515815250509050919050565b6000600460009054906101000a900473ffffffffffffffffffffffffffffffffffffffff1673ffffffffffffffffffffffffffffffffffffffff16636352211e836040518263ffffffff1660e01b815260040161045791906131f5565b602060405180830381865afa158015610474573d6000803e3d6000fd5b505050506040513d601f19601f8201168201806040525081019061049891906133fa565b9050600060096000848152602001908152602001600020600601549050600081116104f8576040517f08c379a00000000000000000000000000000000000000000000000000000000081526004016104ef90613484565b60405180910390fd5b80600360009054906101000a900473ffffffffffffffffffffffffffffffffffffffff1673ffffffffffffffffffffffffffffffffffffffff166370a08231336040518263ffffffff1660e01b815260040161055491906134b3565b602060405180830381865afa158015610571573d6000803e3d6000fd5b505050506040513d601f19601f8201168201806040525081019061059591906134e3565b10156105d6576040517f08c379a00000000000000000000000000000000000000000000000000000000081526004016105cd9061355c565b60405180910390fd5b80600360009054906101000a900473ffffffffffffffffffffffffffffffffffffffff1673ffffffffffffffffffffffffffffffffffffffff1663dd62ed3e33306040518363ffffffff1660e01b815260040161063492919061357c565b602060405180830381865afa158015610651573d6000803e3d6000fd5b505050506040513d601f19601f8201168201806040525081019061067591906134e3565b10156106b6576040517f08c379a00000000000000000000000000000000000000000000000000000000081526004016106ad906135f1565b60405180910390fd5b60016009600085815260200190815260200160002060070160006101000a81548160ff0219169083151502179055507f72396be48787e0a7d1ac8ca616587ab73864c662e65244c3a233c251d038082683828460405161071893929190613611565b60405180910390a1505050565b61072f3389611fc4565b6107393388612018565b61074433878761206e565b61074e3385612101565b61075b33898585856121d3565b6008339080600181540180825580915050600190039060005260206000200160009091909190916101000a81548173ffffffffffffffffffffffffffffffffffffffff021916908373ffffffffffffffffffffffffffffffffffffffff1602179055507f148366cee1989b474bc7f14a5ac3ace2ddabd9c95b55d19c178c54503c9ea88a88888888888888886040516107fb9897969594939291906137fc565b60405180910390a15050505050505050565b600760008673ffffffffffffffffffffffffffffffffffffffff1673ffffffffffffffffffffffffffffffffffffffff16815260200190815260200160002060000161085885611712565b60078110610869576108686138a3565b5b602091828204019190069054906101000a900460ff166108be576040517f08c379a00000000000000000000000000000000000000000000000000000000081526004016108b590613944565b60405180910390fd5b6108c9858585612266565b610908576040517f08c379a00000000000000000000000000000000000000000000000000000000081526004016108ff906139d6565b60405180910390fd5b6000600760008773ffffffffffffffffffffffffffffffffffffffff1673ffffffffffffffffffffffffffffffffffffffff168152602001908152602001600020600301600083815260200190815260200160002060010154036109a1576040517f08c379a000000000000000000000000000000000000000000000000000000000815260040161099890613a42565b60405180910390fd5b8284106109e3576040517f08c379a00000000000000000000000000000000000000000000000000000000081526004016109da90613aae565b60405180910390fd5b834210610a25576040517f08c379a0000000000000000000000000000000000000000000000000000000008152600401610a1c90613b1a565b60405180910390fd5b6000600760008773ffffffffffffffffffffffffffffffffffffffff1673ffffffffffffffffffffffffffffffffffffffff168152602001908152602001600020600301600083815260200190815260200160002060010154905080600360009054906101000a900473ffffffffffffffffffffffffffffffffffffffff1673ffffffffffffffffffffffffffffffffffffffff166370a08231336040518263ffffffff1660e01b8152600401610adc91906134b3565b602060405180830381865afa158015610af9573d6000803e3d6000fd5b505050506040513d601f19601f82011682018060405250810190610b1d91906134e3565b1015610b5e576040517f08c379a0000000000000000000000000000000000000000000000000000000008152600401610b559061355c565b60405180910390fd5b80600360009054906101000a900473ffffffffffffffffffffffffffffffffffffffff1673ffffffffffffffffffffffffffffffffffffffff1663dd62ed3e33306040518363ffffffff1660e01b8152600401610bbc92919061357c565b602060405180830381865afa158015610bd9573d6000803e3d6000fd5b505050506040513d601f19601f82011682018060405250810190610bfd91906134e3565b1015610c3e576040517f08c379a0000000000000000000000000000000000000000000000000000000008152600401610c35906135f1565b60405180910390fd5b6000610c4a6000612326565b9050600360009054906101000a900473ffffffffffffffffffffffffffffffffffffffff1673ffffffffffffffffffffffffffffffffffffffff1663095ea7b3600660009054906101000a900473ffffffffffffffffffffffffffffffffffffffff16846040518363ffffffff1660e01b8152600401610ccb929190613b3a565b6020604051808303816000875af1158015610cea573d6000803e3d6000fd5b505050506040513d601f19601f82011682018060405250810190610d0e9190613b78565b50866009600083815260200190815260200160002060000160006101000a81548173ffffffffffffffffffffffffffffffffffffffff021916908373ffffffffffffffffffffffffffffffffffffffff160217905550600760008873ffffffffffffffffffffffffffffffffffffffff1673ffffffffffffffffffffffffffffffffffffffff168152602001908152602001600020600401600960008381526020019081526020016000206001019081610dc89190613d7c565b50856009600083815260200190815260200160002060020181905550846009600083815260200190815260200160002060030181905550836009600083815260200190815260200160002060040181905550826009600083815260200190815260200160002060050181905550610e3f6000612334565b6000600760008973ffffffffffffffffffffffffffffffffffffffff1673ffffffffffffffffffffffffffffffffffffffff1681526020019081526020016000209050600460009054906101000a900473ffffffffffffffffffffffffffffffffffffffff1673ffffffffffffffffffffffffffffffffffffffff16635bc1fae989836004018a8a8a8a8860030160008d8152602001908152602001600020600101546040518863ffffffff1660e01b8152600401610f049796959493929190613ee8565b600060405180830381600087803b158015610f1e57600080fd5b505af1158015610f32573d6000803e3d6000fd5b505050507f0bf215d1ca6fcc964f5accc4fcdd0355e9d5e64262b0a3e6dee664e47c50ac638888888888604051610f6d959493929190613f5e565b60405180910390a15050505050505050565b610f876123b1565b600760008473ffffffffffffffffffffffffffffffffffffffff1673ffffffffffffffffffffffffffffffffffffffff1681526020019081526020016000206003016000838152602001908152602001600020604051806060016040529081600082018054610ff5906133b4565b80601f0160208091040260200160405190810160405280929190818152602001828054611021906133b4565b801561106e5780601f106110435761010080835404028352916020019161106e565b820191906000526020600020905b81548152906001019060200180831161105157829003601f168201915b505050505081526020016001820154815260200160028201805480602002602001604051908101604052809291908181526020016000905b828210156111525783829060005260206000200180546110c5906133b4565b80601f01602080910402602001604051908101604052809291908181526020018280546110f1906133b4565b801561113e5780601f106111135761010080835404028352916020019161113e565b820191906000526020600020905b81548152906001019060200180831161112157829003601f168201915b5050505050815260200190600101906110a6565b5050505081525050905092915050565b606060088054806020026020016040519081016040528092919081815260200182805480156111e657602002820191906000526020600020905b8160009054906101000a900473ffffffffffffffffffffffffffffffffffffffff1673ffffffffffffffffffffffffffffffffffffffff168152602001906001019080831161119c575b5050505050905090565b606060006111fe6000612326565b905060008167ffffffffffffffff81111561121c5761121b6127f8565b5b60405190808252806020026020018201604052801561124a5781602001602082028036833780820191505090505b5090506000805b838110156114fb57600060096000838152602001908152602001600020604051806101000160405290816000820160009054906101000a900473ffffffffffffffffffffffffffffffffffffffff1673ffffffffffffffffffffffffffffffffffffffff1673ffffffffffffffffffffffffffffffffffffffff1681526020016001820180546112e0906133b4565b80601f016020809104026020016040519081016040528092919081815260200182805461130c906133b4565b80156113595780601f1061132e57610100808354040283529160200191611359565b820191906000526020600020905b81548152906001019060200180831161133c57829003601f168201915b5050505050815260200160028201548152602001600382015481526020016004820154815260200160058201548152602001600682015481526020016007820160009054906101000a900460ff16151515158152505090508673ffffffffffffffffffffffffffffffffffffffff16816000015173ffffffffffffffffffffffffffffffffffffffff161480156113f257508060e00151155b801561140f575042600254826060015161140c9190613fe0565b11155b80156114b35750600460009054906101000a900473ffffffffffffffffffffffffffffffffffffffff1673ffffffffffffffffffffffffffffffffffffffff16634f558e79836040518263ffffffff1660e01b815260040161147191906131f5565b602060405180830381865afa15801561148e573d6000803e3d6000fd5b505050506040513d601f19601f820116820180604052508101906114b29190613b78565b5b156114e757818484815181106114cc576114cb6138a3565b5b60200260200101818152505082806114e390614014565b9350505b5080806114f390614014565b915050611251565b5060008167ffffffffffffffff811115611518576115176127f8565b5b6040519080825280602002602001820160405280156115465781602001602082028036833780820191505090505b50905060005b828110156115a157838181518110611567576115666138a3565b5b6020026020010151828281518110611582576115816138a3565b5b602002602001018181525050808061159990614014565b91505061154c565b5080945050505050919050565b6009600083815260200190815260200160002060000160009054906101000a900473ffffffffffffffffffffffffffffffffffffffff1673ffffffffffffffffffffffffffffffffffffffff163373ffffffffffffffffffffffffffffffffffffffff1614611652576040517f08c379a0000000000000000000000000000000000000000000000000000000008152600401611649906140ce565b60405180910390fd5b8060096000848152602001908152602001600020600601819055507fe4ab10d0c243f7db9d59452abbc1366d244c1c403b77e29ce6a7bc6a3492d7c382826009600086815260200190815260200160002060000160009054906101000a900473ffffffffffffffffffffffffffffffffffffffff166040516116d693929190613611565b60405180910390a15050565b600080600154836116f391906140ee565b9050600062015180826117069190614151565b90508092505050919050565b6000806001548361172391906140ee565b9050600062093a80826117369190614151565b9050600062015180826117499190614182565b9050809350505050919050565b606060006117646000612326565b905060008167ffffffffffffffff811115611782576117816127f8565b5b6040519080825280602002602001820160405280156117b05781602001602082028036833780820191505090505b5090506000805b83811015611a6057600060096000838152602001908152602001600020604051806101000160405290816000820160009054906101000a900473ffffffffffffffffffffffffffffffffffffffff1673ffffffffffffffffffffffffffffffffffffffff1673ffffffffffffffffffffffffffffffffffffffff168152602001600182018054611846906133b4565b80601f0160208091040260200160405190810160405280929190818152602001828054611872906133b4565b80156118bf5780601f10611894576101008083540402835291602001916118bf565b820191906000526020600020905b8154815290600101906020018083116118a257829003601f168201915b5050505050815260200160028201548152602001600382015481526020016004820154815260200160058201548152602001600682015481526020016007820160009054906101000a900460ff16151515158152505090508673ffffffffffffffffffffffffffffffffffffffff16816000015173ffffffffffffffffffffffffffffffffffffffff1614801561195857508060e00151155b801561197457504260025482606001516119729190613fe0565b115b8015611a185750600460009054906101000a900473ffffffffffffffffffffffffffffffffffffffff1673ffffffffffffffffffffffffffffffffffffffff16634f558e79836040518263ffffffff1660e01b81526004016119d691906131f5565b602060405180830381865afa1580156119f3573d6000803e3d6000fd5b505050506040513d601f19601f82011682018060405250810190611a179190613b78565b5b15611a4c5781848481518110611a3157611a306138a3565b5b6020026020010181815250508280611a4890614014565b9350505b508080611a5890614014565b9150506117b7565b5060008167ffffffffffffffff811115611a7d57611a7c6127f8565b5b604051908082528060200260200182016040528015611aab5781602001602082028036833780820191505090505b50905060005b82811015611b0657838181518110611acc57611acb6138a3565b5b6020026020010151828281518110611ae757611ae66138a3565b5b6020026020010181815250508080611afe90614014565b915050611ab1565b5080945050505050919050565b611b1b6123d2565b6040518060e00160405280600760008573ffffffffffffffffffffffffffffffffffffffff1673ffffffffffffffffffffffffffffffffffffffff168152602001908152602001600020600001600780602002604051908101604052809291908260078015611bc4576020028201916000905b82829054906101000a900460ff16151581526020019060010190602082600001049283019260010382029150808411611b8e5790505b50505050508152602001600760008573ffffffffffffffffffffffffffffffffffffffff1673ffffffffffffffffffffffffffffffffffffffff168152602001908152602001600020600101548152602001600760008573ffffffffffffffffffffffffffffffffffffffff1673ffffffffffffffffffffffffffffffffffffffff168152602001908152602001600020600201548152602001600760008573ffffffffffffffffffffffffffffffffffffffff1673ffffffffffffffffffffffffffffffffffffffff1681526020019081526020016000206004018054611cab906133b4565b80601f0160208091040260200160405190810160405280929190818152602001828054611cd7906133b4565b8015611d245780601f10611cf957610100808354040283529160200191611d24565b820191906000526020600020905b815481529060010190602001808311611d0757829003601f168201915b50505050508152602001600760008573ffffffffffffffffffffffffffffffffffffffff1673ffffffffffffffffffffffffffffffffffffffff1681526020019081526020016000206005018054611d7b906133b4565b80601f0160208091040260200160405190810160405280929190818152602001828054611da7906133b4565b8015611df45780601f10611dc957610100808354040283529160200191611df4565b820191906000526020600020905b815481529060010190602001808311611dd757829003601f168201915b50505050508152602001600760008573ffffffffffffffffffffffffffffffffffffffff1673ffffffffffffffffffffffffffffffffffffffff1681526020019081526020016000206006018054611e4b906133b4565b80601f0160208091040260200160405190810160405280929190818152602001828054611e77906133b4565b8015611ec45780601f10611e9957610100808354040283529160200191611ec4565b820191906000526020600020905b815481529060010190602001808311611ea757829003601f168201915b50505050508152602001600760008573ffffffffffffffffffffffffffffffffffffffff1673ffffffffffffffffffffffffffffffffffffffff1681526020019081526020016000206007018054611f1b906133b4565b80601f0160208091040260200160405190810160405280929190818152602001828054611f47906133b4565b8015611f945780601f10611f6957610100808354040283529160200191611f94565b820191906000526020600020905b815481529060010190602001808311611f7757829003601f168201915b50505050508152509050919050565b60006a636f6e736f6c652e6c6f679050600080835160208501845afa505050565b80600760008473ffffffffffffffffffffffffffffffffffffffff1673ffffffffffffffffffffffffffffffffffffffff168152602001908152602001600020600401908161201391906141b3565b505050565b80600760008473ffffffffffffffffffffffffffffffffffffffff1673ffffffffffffffffffffffffffffffffffffffff168152602001908152602001600020600001906007612069929190612415565b505050565b81600760008573ffffffffffffffffffffffffffffffffffffffff1673ffffffffffffffffffffffffffffffffffffffff1681526020019081526020016000206001018190555080600760008573ffffffffffffffffffffffffffffffffffffffff1673ffffffffffffffffffffffffffffffffffffffff16815260200190815260200160002060020181905550505050565b60005b81518110156121ce578181815181106121205761211f6138a3565b5b6020026020010151600760008573ffffffffffffffffffffffffffffffffffffffff1673ffffffffffffffffffffffffffffffffffffffff1681526020019081526020016000206003016000838152602001908152602001600020600082015181600001908161219091906141b3565b506020820151816001015560408201518160020190805190602001906121b79291906124ae565b5090505080806121c690614014565b915050612104565b505050565b6000600760008773ffffffffffffffffffffffffffffffffffffffff1673ffffffffffffffffffffffffffffffffffffffff16815260200190815260200160002090508481600401908161222791906141b3565b508381600501908161223991906141b3565b508281600601908161224b91906141b3565b508181600701908161225d91906141b3565b50505050505050565b6000600760008573ffffffffffffffffffffffffffffffffffffffff1673ffffffffffffffffffffffffffffffffffffffff168152602001908152602001600020600101546122b4846116e2565b1015801561230c5750600760008573ffffffffffffffffffffffffffffffffffffffff1673ffffffffffffffffffffffffffffffffffffffff16815260200190815260200160002060020154612309836116e2565b11155b1561231a576001905061231f565b600090505b9392505050565b600081600001549050919050565b6001816000016000828254019250508190555050565b612352614285565b565b604051806101000160405280600073ffffffffffffffffffffffffffffffffffffffff1681526020016060815260200160008152602001600081526020016000815260200160008152602001600081526020016000151581525090565b60405180606001604052806060815260200160008152602001606081525090565b6040518060e001604052806123e5612507565b81526020016000815260200160008152602001606081526020016060815260200160608152602001606081525090565b826007601f0160209004810192821561249d5791602002820160005b8382111561246e57835183826101000a81548160ff0219169083151502179055509260200192600101602081600001049283019260010302612431565b801561249b5782816101000a81549060ff021916905560010160208160000104928301926001030261246e565b505b5090506124aa9190612529565b5090565b8280548282559060005260206000209081019282156124f6579160200282015b828111156124f55782518290816124e591906141b3565b50916020019190600101906124ce565b5b5090506125039190612546565b5090565b6040518060e00160405280600790602082028036833780820191505090505090565b5b8082111561254257600081600090555060010161252a565b5090565b5b80821115612566576000818161255d919061256a565b50600101612547565b5090565b508054612576906133b4565b6000825580601f1061258857506125a7565b601f0160209004906000526020600020908101906125a69190612529565b5b50565b6000604051905090565b600080fd5b600080fd5b6000819050919050565b6125d1816125be565b81146125dc57600080fd5b50565b6000813590506125ee816125c8565b92915050565b60006020828403121561260a576126096125b4565b5b6000612618848285016125df565b91505092915050565b600073ffffffffffffffffffffffffffffffffffffffff82169050919050565b600061264c82612621565b9050919050565b61265c81612641565b82525050565b600081519050919050565b600082825260208201905092915050565b60005b8381101561269c578082015181840152602081019050612681565b60008484015250505050565b6000601f19601f8301169050919050565b60006126c482612662565b6126ce818561266d565b93506126de81856020860161267e565b6126e7816126a8565b840191505092915050565b6126fb816125be565b82525050565b60008115159050919050565b61271681612701565b82525050565b6000610100830160008301516127356000860182612653565b506020830151848203602086015261274d82826126b9565b915050604083015161276260408601826126f2565b50606083015161277560608601826126f2565b50608083015161278860808601826126f2565b5060a083015161279b60a08601826126f2565b5060c08301516127ae60c08601826126f2565b5060e08301516127c160e086018261270d565b508091505092915050565b600060208201905081810360008301526127e6818461271c565b905092915050565b600080fd5b600080fd5b7f4e487b7100000000000000000000000000000000000000000000000000000000600052604160045260246000fd5b612830826126a8565b810181811067ffffffffffffffff8211171561284f5761284e6127f8565b5b80604052505050565b60006128626125aa565b905061286e8282612827565b919050565b600067ffffffffffffffff82111561288e5761288d6127f8565b5b612897826126a8565b9050602081019050919050565b82818337600083830152505050565b60006128c66128c184612873565b612858565b9050828152602081018484840111156128e2576128e16127f3565b5b6128ed8482856128a4565b509392505050565b600082601f83011261290a576129096127ee565b5b813561291a8482602086016128b3565b91505092915050565b600067ffffffffffffffff82111561293e5761293d6127f8565b5b602082029050919050565b600080fd5b61295781612701565b811461296257600080fd5b50565b6000813590506129748161294e565b92915050565b600061298d61298884612923565b612858565b905080602084028301858111156129a7576129a6612949565b5b835b818110156129d057806129bc8882612965565b8452602084019350506020810190506129a9565b5050509392505050565b600082601f8301126129ef576129ee6127ee565b5b60076129fc84828561297a565b91505092915050565b600067ffffffffffffffff821115612a2057612a1f6127f8565b5b602082029050602081019050919050565b600080fd5b600080fd5b600067ffffffffffffffff821115612a5657612a556127f8565b5b602082029050602081019050919050565b6000612a7a612a7584612a3b565b612858565b90508083825260208201905060208402830185811115612a9d57612a9c612949565b5b835b81811015612ae457803567ffffffffffffffff811115612ac257612ac16127ee565b5b808601612acf89826128f5565b85526020850194505050602081019050612a9f565b5050509392505050565b600082601f830112612b0357612b026127ee565b5b8135612b13848260208601612a67565b91505092915050565b600060608284031215612b3257612b31612a31565b5b612b3c6060612858565b9050600082013567ffffffffffffffff811115612b5c57612b5b612a36565b5b612b68848285016128f5565b6000830152506020612b7c848285016125df565b602083015250604082013567ffffffffffffffff811115612ba057612b9f612a36565b5b612bac84828501612aee565b60408301525092915050565b6000612bcb612bc684612a05565b612858565b90508083825260208201905060208402830185811115612bee57612bed612949565b5b835b81811015612c3557803567ffffffffffffffff811115612c1357612c126127ee565b5b808601612c208982612b1c565b85526020850194505050602081019050612bf0565b5050509392505050565b600082601f830112612c5457612c536127ee565b5b8135612c64848260208601612bb8565b91505092915050565b6000806000806000806000806101c0898b031215612c8e57612c8d6125b4565b5b600089013567ffffffffffffffff811115612cac57612cab6125b9565b5b612cb88b828c016128f5565b9850506020612cc98b828c016129da565b975050610100612cdb8b828c016125df565b965050610120612ced8b828c016125df565b95505061014089013567ffffffffffffffff811115612d0f57612d0e6125b9565b5b612d1b8b828c01612c3f565b94505061016089013567ffffffffffffffff811115612d3d57612d3c6125b9565b5b612d498b828c016128f5565b93505061018089013567ffffffffffffffff811115612d6b57612d6a6125b9565b5b612d778b828c016128f5565b9250506101a089013567ffffffffffffffff811115612d9957612d986125b9565b5b612da58b828c016128f5565b9150509295985092959890939650565b612dbe81612641565b8114612dc957600080fd5b50565b600081359050612ddb81612db5565b92915050565b600080600080600060a08688031215612dfd57612dfc6125b4565b5b6000612e0b88828901612dcc565b9550506020612e1c888289016125df565b9450506040612e2d888289016125df565b9350506060612e3e888289016125df565b9250506080612e4f888289016125df565b9150509295509295909350565b60008060408385031215612e7357612e726125b4565b5b6000612e8185828601612dcc565b9250506020612e92858286016125df565b9150509250929050565b600081519050919050565b600082825260208201905092915050565b6000819050602082019050919050565b6000612ed483836126b9565b905092915050565b6000602082019050919050565b6000612ef482612e9c565b612efe8185612ea7565b935083602082028501612f1085612eb8565b8060005b85811015612f4c5784840389528151612f2d8582612ec8565b9450612f3883612edc565b925060208a01995050600181019050612f14565b50829750879550505050505092915050565b60006060830160008301518482036000860152612f7b82826126b9565b9150506020830151612f9060208601826126f2565b5060408301518482036040860152612fa88282612ee9565b9150508091505092915050565b60006020820190508181036000830152612fcf8184612f5e565b905092915050565b600081519050919050565b600082825260208201905092915050565b6000819050602082019050919050565b600061300f8383612653565b60208301905092915050565b6000602082019050919050565b600061303382612fd7565b61303d8185612fe2565b935061304883612ff3565b8060005b838110156130795781516130608882613003565b975061306b8361301b565b92505060018101905061304c565b5085935050505092915050565b600060208201905081810360008301526130a08184613028565b905092915050565b6000602082840312156130be576130bd6125b4565b5b60006130cc84828501612dcc565b91505092915050565b600081519050919050565b600082825260208201905092915050565b6000819050602082019050919050565b600061310d83836126f2565b60208301905092915050565b6000602082019050919050565b6000613131826130d5565b61313b81856130e0565b9350613146836130f1565b8060005b8381101561317757815161315e8882613101565b975061316983613119565b92505060018101905061314a565b5085935050505092915050565b6000602082019050818103600083015261319e8184613126565b905092915050565b600080604083850312156131bd576131bc6125b4565b5b60006131cb858286016125df565b92505060206131dc858286016125df565b9150509250929050565b6131ef816125be565b82525050565b600060208201905061320a60008301846131e6565b92915050565b600060079050919050565b600081905092915050565b6000819050919050565b600061323c838361270d565b60208301905092915050565b6000602082019050919050565b61325e81613210565b613268818461321b565b925061327382613226565b8060005b838110156132a457815161328b8782613230565b965061329683613248565b925050600181019050613277565b505050505050565b60006101a0830160008301516132c56000860182613255565b5060208301516132d860e08601826126f2565b5060408301516132ec6101008601826126f2565b50606083015184820361012086015261330582826126b9565b915050608083015184820361014086015261332082826126b9565b91505060a083015184820361016086015261333b82826126b9565b91505060c083015184820361018086015261335682826126b9565b9150508091505092915050565b6000602082019050818103600083015261337d81846132ac565b905092915050565b7f4e487b7100000000000000000000000000000000000000000000000000000000600052602260045260246000fd5b600060028204905060018216806133cc57607f821691505b6020821081036133df576133de613385565b5b50919050565b6000815190506133f481612db5565b92915050565b6000602082840312156134105761340f6125b4565b5b600061341e848285016133e5565b91505092915050565b600082825260208201905092915050565b7f7061796d656e74416d6f756e74206973206e6f74207365740000000000000000600082015250565b600061346e601883613427565b915061347982613438565b602082019050919050565b6000602082019050818103600083015261349d81613461565b9050919050565b6134ad81612641565b82525050565b60006020820190506134c860008301846134a4565b92915050565b6000815190506134dd816125c8565b92915050565b6000602082840312156134f9576134f86125b4565b5b6000613507848285016134ce565b91505092915050565b7f496e73756666696369656e7420555344432042616c616e636500000000000000600082015250565b6000613546601983613427565b915061355182613510565b602082019050919050565b6000602082019050818103600083015261357581613539565b9050919050565b600060408201905061359160008301856134a4565b61359e60208301846134a4565b9392505050565b7f496e73756666696369656e74205553444320416c6c6f77616e63650000000000600082015250565b60006135db601b83613427565b91506135e6826135a5565b602082019050919050565b6000602082019050818103600083015261360a816135ce565b9050919050565b600060608201905061362660008301866131e6565b61363360208301856131e6565b61364060408301846134a4565b949350505050565b600061365382612662565b61365d8185613427565b935061366d81856020860161267e565b613676816126a8565b840191505092915050565b600081905092915050565b61369581613210565b61369f8184613681565b92506136aa82613226565b8060005b838110156136db5781516136c28782613230565b96506136cd83613248565b9250506001810190506136ae565b505050505050565b600081519050919050565b600082825260208201905092915050565b6000819050602082019050919050565b6000606083016000830151848203600086015261372c82826126b9565b915050602083015161374160208601826126f2565b50604083015184820360408601526137598282612ee9565b9150508091505092915050565b6000613772838361370f565b905092915050565b6000602082019050919050565b6000613792826136e3565b61379c81856136ee565b9350836020820285016137ae856136ff565b8060005b858110156137ea57848403895281516137cb8582613766565b94506137d68361377a565b925060208a019950506001810190506137b2565b50829750879550505050505092915050565b60006101c0820190508181036000830152613817818b613648565b9050613826602083018a61368c565b6138346101008301896131e6565b6138426101208301886131e6565b8181036101408301526138558187613787565b905081810361016083015261386a8186613648565b905081810361018083015261387f8185613648565b90508181036101a08301526138948184613648565b90509998505050505050505050565b7f4e487b7100000000000000000000000000000000000000000000000000000000600052603260045260246000fd5b7f53686f7020697320636c6f736564206f6e20746865207265736572766174696f60008201527f6e20646174650000000000000000000000000000000000000000000000000000602082015250565b600061392e602683613427565b9150613939826138d2565b604082019050919050565b6000602082019050818103600083015261395d81613921565b9050919050565b7f53686f7020697320636c6f736564206f6e20746865207265736572766174696f60008201527f6e2074696d650000000000000000000000000000000000000000000000000000602082015250565b60006139c0602683613427565b91506139cb82613964565b604082019050919050565b600060208201905081810360008301526139ef816139b3565b9050919050565b7f636f757273654964206973206e6f742065786973747300000000000000000000600082015250565b6000613a2c601683613427565b9150613a37826139f6565b602082019050919050565b60006020820190508181036000830152613a5b81613a1f565b9050919050565b7f7374617274696e6754696d65203e20656e64696e6754696d6500000000000000600082015250565b6000613a98601983613427565b9150613aa382613a62565b602082019050919050565b60006020820190508181036000830152613ac781613a8b565b9050919050565b7f7374617274696e6754696d652069732070617374000000000000000000000000600082015250565b6000613b04601483613427565b9150613b0f82613ace565b602082019050919050565b60006020820190508181036000830152613b3381613af7565b9050919050565b6000604082019050613b4f60008301856134a4565b613b5c60208301846131e6565b9392505050565b600081519050613b728161294e565b92915050565b600060208284031215613b8e57613b8d6125b4565b5b6000613b9c84828501613b63565b91505092915050565b600081549050613bb4816133b4565b9050919050565b60008190508160005260206000209050919050565b60008190508160005260206000209050919050565b60006020601f8301049050919050565b600082821b905092915050565b600060088302613c327fffffffffffffffffffffffffffffffffffffffffffffffffffffffffffffffff82613bf5565b613c3c8683613bf5565b95508019841693508086168417925050509392505050565b6000819050919050565b6000613c79613c74613c6f846125be565b613c54565b6125be565b9050919050565b6000819050919050565b613c9383613c5e565b613ca7613c9f82613c80565b848454613c02565b825550505050565b600090565b613cbc613caf565b613cc7818484613c8a565b505050565b5b81811015613ceb57613ce0600082613cb4565b600181019050613ccd565b5050565b601f821115613d3057613d0181613bbb565b613d0a84613be5565b81016020851015613d19578190505b613d2d613d2585613be5565b830182613ccc565b50505b505050565b600082821c905092915050565b6000613d5360001984600802613d35565b1980831691505092915050565b6000613d6c8383613d42565b9150826002028217905092915050565b818103613d8a575050613e62565b613d9382613ba5565b67ffffffffffffffff811115613dac57613dab6127f8565b5b613db682546133b4565b613dc1828285613cef565b6000601f831160018114613df05760008415613dde578287015490505b613de88582613d60565b865550613e5b565b601f198416613dfe87613bd0565b9650613e0986613bbb565b60005b82811015613e3157848901548255600182019150600185019450602081019050613e0c565b86831015613e4e5784890154613e4a601f891682613d42565b8355505b6001600288020188555050505b5050505050505b565b60008154613e71816133b4565b613e7b8186613427565b94506001821660008114613e965760018114613eac57613edf565b60ff198316865281151560200286019350613edf565b613eb585613bbb565b60005b83811015613ed757815481890152600182019150602081019050613eb8565b808801955050505b50505092915050565b600060e082019050613efd600083018a6134a4565b8181036020830152613f0f8189613e64565b9050613f1e60408301886131e6565b613f2b60608301876131e6565b613f3860808301866131e6565b613f4560a08301856131e6565b613f5260c08301846131e6565b98975050505050505050565b600060a082019050613f7360008301886134a4565b613f8060208301876131e6565b613f8d60408301866131e6565b613f9a60608301856131e6565b613fa760808301846131e6565b9695505050505050565b7f4e487b7100000000000000000000000000000000000000000000000000000000600052601160045260246000fd5b6000613feb826125be565b9150613ff6836125be565b925082820190508082111561400e5761400d613fb1565b5b92915050565b600061401f826125be565b91507fffffffffffffffffffffffffffffffffffffffffffffffffffffffffffffffff820361405157614050613fb1565b5b600182019050919050565b7f6d73672e73656e6465722073686f756c64206265207468652073686f70206f7760008201527f6e65720000000000000000000000000000000000000000000000000000000000602082015250565b60006140b8602383613427565b91506140c38261405c565b604082019050919050565b600060208201905081810360008301526140e7816140ab565b9050919050565b60006140f9826125be565b9150614104836125be565b925082820390508181111561411c5761411b613fb1565b5b92915050565b7f4e487b7100000000000000000000000000000000000000000000000000000000600052601260045260246000fd5b600061415c826125be565b9150614167836125be565b92508261417757614176614122565b5b828206905092915050565b600061418d826125be565b9150614198836125be565b9250826141a8576141a7614122565b5b828204905092915050565b6141bc82612662565b67ffffffffffffffff8111156141d5576141d46127f8565b5b6141df82546133b4565b6141ea828285613cef565b600060209050601f83116001811461421d576000841561420b578287015190505b6142158582613d60565b86555061427d565b601f19841661422b86613bbb565b60005b828110156142535784890151825560018201915060208501945060208101905061422e565b86831015614270578489015161426c601f891682613d42565b8355505b6001600288020188555050505b505050505050565b7f4e487b7100000000000000000000000000000000000000000000000000000000600052605160045260246000fdfea2646970667358221220781dfcf359a9060453860b700f8191beb91272fd7e80edee790b149de5f0ae4c64736f6c63430008130033",
  "linkReferences": {},
  "deployedLinkReferences": {}
}